:020000040002F8
:1060000010880020F96202000163020003630200AD
:10601000056302000763020009630200000000003C
:106020000000000000000000000000000B63020000
:106030000D630200000000000F6302001163020004
:106040006566020013630200C56802001363020064
:1060500013630200136302004D6402001363020025
:106060001363020013630200136302001363020050
:106070001363020013630200136302001363020040
:1060800013630200BD660200136302001363020083
:10609000E166020013630200E5660200136302007A
:1060A0001363020013630200136302001363020010
:1060B00013630200136302000000000000000000F0
:1060C00013630200136302001363020013630200F0
:1060D00013630200136302001363020013630200E0
:1060E0001363020013630200136302000000000048
:1060F00000000000136302000000000013630200B0
:10610000000000000000000000000000000000008F
:10611000000000000000000000000000000000007F
:10612000000000000000000000000000000000006F
:10613000000000000000000000000000000000005F
:10614000000000000000000000000000000000004F
:10615000000000000000000000000000000000003F
:10616000000000000000000000000000000000002F
:10617000000000000000000000000000000000001F
:10618000000000000000000000000000000000000F
:1061900000000000000000000000000000000000FF
:1061A00000000000000000000000000000000000EF
:1061B00000000000000000000000000000000000DF
:1061C00000000000000000000000000000000000CF
:1061D00000000000000000000000000000000000BF
:1061E00000000000000000000000000000000000AF
:1061F000000000000000000000000000000000009F
:10620000DFF80CD000F0E4F8004800478980020075
:106210001088002030B4044654E8000F0D4644E8CE
:106220000053002BF8D1156030BC704730B40446E1
:1062300054E8000F40EA010544E80053002BF7D171
:10624000156030BC704730B4044654E8000F00EAD3
:10625000010544E80053002BF7D1156030BC7047AE
:1062600030B4044654E8000F80EA010544E80053C6
:10627000002BF7D1156030BC704730B4044654E8A9
:10628000000F00EB010544E80053002BF7D1156027
:1062900030BC704730B4044654E8000FA0EB010551
:1062A00044E80053002BF7D1156030BC704770B440
:1062B00004464FF0000054E8006F0D68AE4207BF7F
:1062C00044E80023012044E800630E60002B1CBF5B
:1062D0000020F0E770BC704730B4044654E8000F6B
:1062E00088422CBF451A054644E80053002BF5D1DF
:1062F000156030BC704700000648804706480047DC
:10630000FEE7FEE7FEE7FEE7FEE7FEE7FEE7FEE765
:10631000FEE7FEE7E966020001620200202A04DBD4
:10632000203A00FA02F1002070479140C2F12003A8
:1063300020FA03F31943904070470000004870476B
:1063400088B4020040EA01039B0703D009E008C9B2
:10635000121F08C0042AFAD203E011F8013B00F82A
:10636000013B521EF9D27047D2B201E000F8012B76
:10637000491EFBD270470022F6E710B513460A46C5
:1063800004461946FFF7F0FF204610BD421C10F8E6
:10639000011B0029FBD1801A704710B5002200E0D4
:1063A000521C835C8C5CA34201D1002BF8D1D8B283
:1063B000E1B2401A10BD30B504460020034600E0AB
:1063C0005B1C934203D2E05CCD5C401BF8D030BD37
:1063D000064C074D06E0E06840F0010394E8070032
:1063E00098471034AC42F6D3FFF70EFFB0BC020062
:1063F000D0BC020070B58C1810F8015B15F00703D3
:1064000001D110F8013B2A1106D110F8012B03E04D
:1064100010F8016B01F8016B5B1EF9D12B0705D455
:106420000023521E0DD401F8013BFAE710F8013B9E
:10643000CB1A921C03E013F8015B01F8015B521EBA
:10644000F9D5A142D8D3002070BD00002DE9F04F4E
:1064500000268DB0DFF8A081B14604964FF4807518
:10646000012437460596284602F0FCFC38B1D8F8DE
:106470000403204203D0284602F0EAFC26432D1DE7
:1064800064007F1CADB2082FEDD34FF4BE742046DC
:1064900002F0E8FC48B1204602F0DAFC46F0004683
:1064A00004AA0221002002F0BDFC544C16F0FF0F9C
:1064B00015D00127002537420DD008EB8501D1F812
:1064C0001005D1F81015C0F3052054F82520C1F3AC
:1064D000014102B190477F006D1C082DEBD3002EC7
:1064E0007EDA0020CDF82890411E0DF1100B07AA8E
:1064F000CDF82C9042F82010401C91460228F9D388
:1065000000252E46A11911F8607F91F9000027F0AF
:10651000C008401C40D007A9404601F02DFF40B301
:106520004FEA971A404601F0D3F854F820701FB193
:10653000BAF1030F03D006E0BAF1030F2CD10AA978
:10654000404601F021FF02A8CDF8088002F00EFCC1
:10655000029900EB8100D0F8000704A9C0F30140C4
:106560000290404601F008FF0028029802D002285D
:1065700002D011E003280FD1BAF1030F08D102981D
:10658000022833D00221404602F0CAFB6D1CEDB256
:1065900017B151464046B847761C042EB2D3002DA1
:1065A00021D001AA0221002002F03CFC00205A4622
:1065B0000DF1040152F8206051F82030B34217D099
:1065C00000200AAE4FEA090351F8207042F820700B
:1065D00056F8207043F82070401C0228F4D300E0E5
:1065E00001E0002D8CD10DB0BDE8F08F0321CAE78A
:1065F000401C0228DED3F6E7006000405060002017
:1066000000F01F02012191404009800000F1E020CC
:10661000C0F88012704700F01F020121914040092C
:10662000800000F1E020C0F80011704700F01F0268
:10663000012191404009800000F1E020C0F80012E3
:1066400070474907090E002806DA00F00F0000F134
:10665000E02080F8141D704700F1E02080F800145D
:106660007047000070B54FF48076304602F03EF976
:10667000114CB50560B1304602F03FF90120C5F874
:106680000803607920B901206071216800208847E3
:106690004FF48276304602F029F900280AD03046BD
:1066A00002F02BF90220C5F808032168BDE870400C
:1066B0000120084770BD0000045A0020074800214F
:1066C000C0F84011C0F84411C0F84811C0F84C118E
:1066D000C0F80011C0F8041104F0A4BA0010014081
:1066E00004F0EEB903F00EB930B54FF0805000223F
:1066F0008300D0F83011C3F80C21C3F81021624B8D
:106700001A60624B1B68624C2360604B1B1D1B6848
:10671000241D23605D4B08331B68241D23605B4BE5
:106720000C331B68241D2360584B10331B68241D39
:106730002360564B14331B68241D2360534B1833BE
:106740001B68534C20342360504B1C331B68241DA2
:1067500023604E4B20331B68241D23604B4B243396
:106760001B68241D2360494B28331B68241D2360AC
:10677000464B2C331B68241D2360444B30331B686D
:10678000434C40342360414B34331B68241D236049
:106790003E4B38331B68241D23603C4B3C331B6845
:1067A000241D2360394B40331B68241D23600123C3
:1067B000082902D1D0F8344114B1082904D006E0E8
:1067C000354C3449216005E0D0F8344114B1082932
:1067D00004D006E0314CFB21216005E0D0F83441C3
:1067E00014B1082908D00EE090F858422C480168EE
:1067F00064F30301016002E0D0F834411CB9294977
:106800004FF40070086028480168C90702D06FF093
:10681000010101602548016841F470010160BFF386
:106820004F8FBFF36F8F4FF01021D1F80002002877
:1068300003DBD1F80402002822DA1D4C23601D4836
:106840000368002BFCD01223C1F800320568002D2C
:10685000FCD0C1F8043201680029FCD02260016834
:106860000029FCD0BFF34F8F10487C380168124AD2
:1068700001F4E06111430160BFF34F8F00BFFDE7FA
:106880000F490E48086030BD380500400404001070
:1068900020C50040488103008C56004018F5004098
:1068A000E40E0040409602400004004088ED00E005
:1068B00004E5014000E401400400FA050090D00323
:1068C000C85A002001480068004700000C5A002008
:1068D00002E008C8121F08C1002AFAD170477047A9
:1068E000002001E001C1121F002AFBD17047000007
:1068F0000121202803DA81400548014003E04028B7
:1069000002DA2038814009B1012070470020704729
:10691000FC06FFBD31B500252C462146684601F036
:106920009CFC00B16D1C641C142CF6D3284638BDA9
:1069300010B501220221002000F0D8FD08B107287F
:1069400010D107220221012000F0D0FD08B1072854
:1069500008D100210A22084600F0C8FD08B1072826
:1069600000D1002010BD000070B50024084D05E0E6
:10697000686810F8340003F0A3F8641C2878844297
:10698000F6D304484068BDE8704000F021B900002B
:10699000185A0020A0B1020070B50024064D06E090
:1069A0006868012110F8340003F0AEF8641C287800
:1069B0008442F5D3002070BD185A0020F8B5154662
:1069C0000C460646052A01D20720F8BD03F094F9CB
:1069D00018B903F057F90028F7D1124900224E6088
:1069E0000C708D60C1E90422C1E906220E4D0DE054
:1069F00006EBC4002968009181788DF801100078B9
:106A00000A4A694603F0CCF80028DED1641EE4B2DD
:106A1000EED2BDE8F84004480021054A001D00F010
:106A200057B80000185A0020A0B10200C97B02002C
:106A3000B579020072B602F0B5FC00BF02F0F8FAB8
:106A40000028FBD111481249401AC408012000EB6C
:106A5000044010A102F006FC11480068C00700D0F5
:106A600000BE022000EB04400EA102F0FBFBBFF3CE
:106A70004F8F0B48E43801680E4A01F4E06111437E
:106A80000160BFF34F8F00BFFDE7000038BD02007B
:106A9000E0BC0200466174616C206572726F720026
:106AA000F0ED00E053797374656D20726573657461
:106AB000000000000400FA050EB500210091CDE9A8
:106AC00001106A4644F20100FFF7B4FF0EBD00005A
:106AD000074B9B7823B12AB120B10068037C1BB11E
:106AE00008207047072070474174426100207047BA
:106AF0002C61002070B503F039FE104800240B21F2
:106B0000047044700E4D817014206C602C706C7099
:106B1000FFF776FD06211420FFF793FD1420FFF701
:106B20007AFD0848046006211120FFF78AFD054818
:106B3000001F0068A860002070BD00002C610020CC
:106B4000385A0020081501402DE9FC47DFF87890FD
:106B500099F8023073B368B3052902D20720BDE863
:106B6000FC87436933B3437C012B25D000270446BF
:106B70000025884616468DF80050684600F038F823
:106B800001A804F091FAC8B1012101700F494460D5
:106B90000968C0E90218C0E904769DF8040089F884
:106BA00001009DF8000000F047F81420FFF73EFDBB
:106BB0002846D4E70820D2E70F46D8E704259DF8F9
:106BC000000000F039F8F3E72C61002004150140C3
:106BD0000649897839B130B1416921B10021017488
:106BE000022103F0FBBF0820704700002C61002049
:106BF00030B5EFF3108172B60D4A9468012324B1C9
:106C00000370002900D162B630BD93604FF0E023DD
:106C1000D3F88051074C25401560C3F88041D3F864
:106C2000844154605A17C3F8842100220270E8E7B7
:106C300038620020FC06FFBD0B498A68002A11D08B
:106C400000280FD1EFF3108072B60B684FF0E022EE
:106C5000C2F800314B68C2F8043100228A60002873
:106C600000D162B6704700003862002070B505465A
:106C700008680C46411C04D002F0ADF8206802F010
:106C80003BF86068411C02D0002102F023F829681B
:106C9000A069C1F82405607D227D29681043C1F8F0
:106CA0006C05D4E900122868C0F81425C0F80C154A
:106CB000207D012814D1A068411C02D0002102F0DF
:106CC00009F8E068411C04D002F085F8E06802F0A1
:106CD00013F8D4E902122868C0F80825C0F8101586
:106CE00070BD70B5054608680C46411C04D002F022
:106CF0007CF8206802F00AF86068411C02D000218C
:106D000001F0F1FF2968A069C1F82405607D217DAB
:106D10002A680843C2F86C05D4E900122868C0F854
:106D20000C15C0F81425207D012814D1A068411C41
:106D300002D0002101F0D7FFE068411C04D002F02E
:106D400054F8E06801F0E2FFD4E902122868C0F8C4
:106D50000825C0F8101570BD78210148FFF70BBB5E
:106D60000C5C0020F8B506464FF000001500ADF8A9
:106D7000000015D009236A46304600F015F8044695
:106D8000BDF80000064458B154B12846FFF7FEFA9A
:106D9000A04205D1224631462846FFF70CFB08B138
:106DA0000020F8BD0120F8BD70B588B182B1002483
:106DB000158803E0065D641C3444A4B2A54203D8E0
:106DC000061976789E4201D08C42F3D38C4201D3CF
:106DD000002070BDA11C1180005D401E80B270BDFE
:106DE000054808B5C16800918168684601F056FA07
:106DF0000098FFF78FFD08BD0C5C0020FFF7ACBFCB
:106E000070B540B10C4D297839B1044603F092FCBD
:106E100028B1002070BD0E2070BD082070BDE8684C
:106E2000062807D20549226801EB8001401C0A6050
:106E3000E860EEE7042070BDD8590020845C002093
:106E400040B1054900220123CA600B70C1E901026B
:106E5000104670470E207047D859002070B50400C6
:106E60002DD000292BD020480078002827D020885A
:106E70000D46112815D0302804D0322807D03328E9
:106E80001ED109E0211D284603F052FB18E0211D08
:106E9000284603F083F913E0211D284603F07AFA0F
:106EA0000EE0A088B5F8CA12884209D1002085F802
:106EB000C70285F8C8024FF6FF70A5F8CA0270BD78
:106EC00095F8C8020028FAD020883028F7D34F2838
:106ED000F5D8A088B5F8CA128842F0D12846BDE896
:106EE000704000F019BE0000D859002048B1084A8F
:106EF000137843B1D26832B190F8C7222AB1112079
:106F000070470E2070470820704700F005BE000053
:106F1000D859002038B50188041D1F296FD018DC0E
:106F20004248434A1029A0EB02004FEAD0004FF03C
:106F3000030202EB004516D011296DD12379228876
:106F400028463CA102F099F9FFF74AFF002843D0F8
:106F50004AE0212957D03B295FD056295CD180884F
:106F6000132176DF5CE0228828463FA102F07EF9FB
:106F70002088082802D30020FFF79EFD218847487B
:106F8000002200EB011000F08BF908B1FFF794FD2F
:106F90002188B320424A484302EB8000FFF7A6FF56
:106FA000112802D008B1FFF787FD012000F08CFA0C
:106FB000FFF716FF08284FF0000009D000F084FA10
:106FC0002846384902F04EF9BDE8384003F052BC7B
:106FD000BDE8384000F070BAFFF7C6FC08B1FFF713
:106FE0006BFD012000F068FA28462FA102F03AF963
:106FF00003F040FCBDE83840002000F065BA20886E
:10700000211D75DF0CE000210091808869468FDF2B
:10701000002801D0FFF750FD38BD8088132176DFAE
:107020000028F9D0BDE83840FFF746BD38BD020062
:10703000E0BC02004C42532063656E7472616C20A8
:107040006C696E6B203078257820646973636F6E8D
:107050006E65637465642028726561736F6E3A2093
:107060003078257829000000436F6E6E656374697F
:107070006F6E20307825782065737461626C697357
:107080006865642C207374617274696E6720444271
:1070900020646973636F766572792E00185B002037
:1070A000704300208CB402005374617274207363C7
:1070B000616E6E696E6720666F7220424C455F4755
:1070C00041505F4556545F444953434F4E4E4543EC
:1070D0005445440010B51A4C0188606810290ED040
:1070E00011292BD1401E606028D1FFF721FC002818
:1070F00024D02168002921D0BDE810400847D0B92C
:1071000000210122084600F0F1F908B107280FD14B
:1071100007220221012000F0E9F908B1072807D170
:1071200004220221002000F0E1F920B1072802D05A
:10713000216801B188476068401C606010BD000094
:10714000D05900202DE9F04F0746858802883D4838
:10715000012197B08346102A09D0112A49D01A2A52
:107160006CD1387AB1EB101F45D2012244E0354C86
:10717000083CA068C0430B9061680BA801F08EF832
:107180000B990CA800F046FB2C220CA96846FFF7CF
:10719000D9F80026E946A04610E000BF09EB4600FA
:1071A0005FF00004B0F804A008EB84005146001D15
:1071B00001F048F8641C1D2CF6D3761C0098B042F0
:1071C000ECD8142D05D317B00420BDE8F04FFFF71D
:1071D00073BC2946584601F04BF8294608F10400D3
:1071E00001F046F8F87B012828D016482946001DF2
:1071F00015E029461AE000220221B1EB101F01D24E
:10720000012600E000260F49083901F11000041D95
:10721000294682B101F02CF836B12946204617B034
:10722000BDE8F04F01F024B82946204617B0BDE86C
:10723000F04F01F007B801F005F8F5E717B0BDE829
:10724000F08F0000145C002070B518B30288A2F51E
:107250007F41FF391CD0104C4388104D206800EB53
:107260008001401C00F00700206005EB8101022036
:107270004B81C881081D086100248C81012008729F
:1072800008714C710A80887003F006FD204670BDBD
:10729000082070BD0E2070BDE85900209C5F0020C2
:1072A00040B1018022B11168C0F802109188C180FC
:1072B000002070470E20704730B5134D040085B094
:1072C0002DCD8DE82D001DD0E1B10868D0B1002092
:1072D0006080A080E0804FF6FF7020800868A0608A
:1072E00004F10C01684662DF002809D1207B8DF88B
:1072F000120041F22350ADF8100004A8FFF780FD02
:1073000005B030BD0E20FBE780B102000EB50029AC
:1073100021D000281FD00288112A25D0382A1BD05E
:10732000392A18D10A4609888388994213D141899C
:10733000938899420FD1C18901290CD102218DF87E
:1073400000101188ADF80210007C8DF804009368DD
:107350006946104698470EBD098880888142FAD157
:10736000BDE80E4003F098BC0A8880888242F2D1C2
:107370004FF6FF700880002048808880C8800EBDCE
:1073800070B518B30288A2F57F43FF3B1CD0104CA8
:10739000104D236803EB83025B1C03F0070323609B
:1073A00005EB8202C38853810123D381141D14612C
:1073B000002494810224147211710088108093704B
:1073C00003F06AFC002070BD082070BD0E2070BD67
:1073D000E85900209C5F00203EB50A78002A40D181
:1073E0008A88A2F5A853233B3BD18A79037B9A4232
:1073F00037D101228DF800204A88ADF80220002202
:1074000018E000BF02EBC20301EB430333F80E4F59
:1074100004F6DC24B4F5005405D0012C09D11B89F5
:10742000ADF8083005E01C89ADF806405B89ADF881
:107430000430521C0B7A9342E4D80188A1F57F42B4
:10744000FF3A0BD0C18849B9818839B9418829B937
:107450000199C0F80210BDF80810C1808268694621
:1074600090473EBD2DE9FC410646C0074FF00005A0
:107470000ED0104F00240122385D009500231146E4
:10748000019501F0B1FB641C042CF4D300F024F846
:10749000B0070DD5074E0024361D0022305D0323B2
:1074A00000951146019501F09FFB641C042CF4D358
:1074B000BDE8FC81E4B002000249085C012101F052
:1074C0009EBC0000E4B002000249085C002101F00B
:1074D00096BC0000E4B0020010B500242046FFF77F
:1074E000EBFF641C042CF9D310BD000070B5002321
:1074F000042810D20D4D00EB4004012A02D10129CD
:107500000CD00022094E00EB4000304461B101294B
:1075100006D0022906D00723184670BD0E30C2B22D
:107520002A55F9E74270F7E78270F5E7005C002022
:107530002DE9F8430546861C00208DF80000904692
:107540000F464FF001096846FFF752FB1B4C2068BD
:107550003860D4E90001401AA16804F21C47081AF7
:107560000EE00121384600F093FE00F03FFD014699
:10757000384600F08DFED4E90001401AA168081ACF
:10758000401C8642EDD8B8F1000F03D0052065F30A
:10759000891002E0062065F39F50A268216811401F
:1075A00004EB8101C8602068304420609DF8000031
:1075B000FFF742FB4846BDE8F8830000E86300207F
:1075C00030B482680468531C8360A154D0E901126E
:1075D0008A4202D330BC01F00EBA30BC70470000C2
:1075E000034803C8814201D1012070470020704741
:1075F000E86300202DE9F0410D460B2803D0BDE8DB
:10760000F041FFF759BA104E002443F2020700BFC1
:1076100006EB04102946FFF7B3FE18B1B84201D0BB
:1076200008280FD1641C082CF2D3084808492A46C0
:10763000BDE8F041401AC008032101EB004005A15C
:1076400001F014BEBDE8F081185B002038BD0200D7
:10765000E0BC02004C4253207772697465204C45AF
:1076600044207374617465202564000005494FF05F
:10767000FF32082841F8202002D3084480F858201F
:107680007047000050600020F0B54FF0FF3512B198
:107690000023082601E008230C260C4C05E000BF5F
:1076A00054F823707F1C04D05B1CB342F8D32846E7
:1076B000F0BD26185DB286F8305044F82310002A39
:1076C000F5D1E11881F85800F1E700005060002082
:1076D0000249084490F930007047000050600020D3
:1076E00008B5024690F8C6020B4600EB8001C1EBDC
:1076F000801002EB400092F8C52242B1521ED2B275
:1077000002EBC20100EB4102518A491C00E0C18832
:10771000ADF800100089ADF80200694618469DDFFB
:1077200008BD000070B5084C050009D01034216870
:10773000002907D008682060496828468847F6E78E
:107740000834F4E770BD00003C600020054A0121C8
:1077500020B1012805D19170FFF7E4BF51700020DE
:10776000FAE770473C6000202DE9F05F2648416849
:10777000F1B3DFF898B00E688146DBF80040876807
:107780008078E11B21F07F45ED1CB0B9DFF88080E7
:107790004FF48030C8F84403C8F804031120FEF702
:1077A0002FFF1120FEF737FF4FF0010AC8F800A0A5
:1077B0002F2002F07DF989F802A0B54200D23546AB
:1077C000124BE8193C3320F07F401860DBF80010C2
:1077D0005A46091B21F07F41001B20F07F40C91C45
:1077E00081420FD9106818602F2002F061F900E083
:1077F00004E0BDE8F05F1120FEF718BFBDE8F05FC0
:1078000002F0B4BFBDE8F09F385A002004150140D3
:107810000010014073B58CB00646002000900D9812
:1078200080B100246D4621460DA800F016FD30B150
:10783000009805EB400084800098401C0090641C78
:10784000142CF0D32C2269463046FEF77BFD0EB097
:1078500070BD000070B588B0064600200590069007
:10786000ADF81410ADF816100190029001AA05A908
:10787000304690DF050021D002F0BEF803461148E3
:1078800011493246401AC108012000EB014004466C
:107890000E4901F0F2FCBDF8042012B9BDF8060053
:1078A00028B1BDF80630204609A101F0E6FCBDF87C
:1078B00008201AB12046164901F0D8FC08B0284625
:1078C00070BD0000E8BC0200E0BC02008CB5020004
:1078D00054686520726571756573746564205458C9
:1078E0002F5258207061636B6574206C656E6774ED
:1078F0006820697320746F6F206C6F6E67206279E7
:107900002025752F2575206F63746574732E000014
:10791000D8B502004188034A02EB01120146104625
:10792000FFF75ABD185B00202DE9F843054690F893
:10793000C6020F4600EB8001C1EB801005EB40064C
:1079400095F8C542914604EBC40006EB400132793C
:10795000601C0A31904226D16B460022284600F076
:1079600023FA18B310E0401EA04201D1002004E029
:1079700004EBC40006EB40001C30804602466B4618
:10798000284600F011FA30B10020387069464846A8
:107990009EDFBDE8F88395F8C5024146401C641C93
:1079A00085F8C502E4B23079A042DCD801203870F5
:1079B0000020EEE72DE9F0470025DFF88C803CE061
:1079C0006068002100EBC506012032789146FEF781
:1079D000A5FCD4E9062300EA020701EA030C57EAF2
:1079E0000C0728D082438B434846C4E9062302F0A3
:1079F00041F932788246914601200021FEF78EFC43
:107A0000D4E9042300EA020401EA03074A46504687
:107A10000021FEF783FC44404F403C430BD170787B
:107A2000012801D0012100E00021726881EA0A01E9
:107A30000AB1484690476D1CEDB298F800004446E4
:107A40008542BDD3BDE8F087185A00202DE9F047E4
:107A5000894690F8C612904601EB8102C2EB811173
:107A600000EB4107384602F065FE06002FD0194CA6
:107A7000A06806282BD2184D762205EBC010394697
:107A8000A0F80280001DFEF75DFC0027B9F1000F91
:107A900004D0A06805EBC010077004E0A1680220C4
:107AA00005EBC1110870A06805EBC011401CCE6742
:107AB000A060E16888420AD1002604E005EBC61008
:107AC000C16F8847761CE0688642F7D3A760BDE89F
:107AD000F0870000D85900209C5C002070B50E464D
:107AE00090F8C612154601EB8102C2EB8111A0B0DD
:107AF00000EB410002F01EFE040009D07C22054983
:107B00006846FEF71FFCADF8025068460196A04794
:107B100020B070BDECB0020070B50E4604464FF4C4
:107B20003371FEF728FC11480025A4F8CA6285606D
:107B300084F8C9520E4884F8C65284F8C5520068C9
:107B400020602246012130469BDF0121112806D00A
:107B5000002809D184F8C71284F8C85203E084F8D9
:107B6000C71284F8C812002070BD0000D859002048
:107B7000845C002010B50021024800F09AFB80F3DD
:107B8000100010BD046800200E4910B50A784C782A
:107B90000023A24212D0521CD2B20A70022A00D193
:107BA0000B70084A0B780C3252F823200260886868
:107BB000104420F07F408860012010BD0360002049
:107BC00010BD0000385A00202DE9F04180460246E1
:107BD00001200021FEF7A2FB1A4F05460E467868E9
:107BE000FEF7F6FF00280CD1174CD4E90621104609
:107BF0002A4001EA06031A4305D0A843B143C4E969
:107C00000601BDE8F081404602F034F830B1D4E915
:107C1000040128433143C4E9040105E0D4E9041018
:107C2000A943B043C4E90410D4E906012843314311
:107C3000C4E90601A1687868BDE8F0410022FEF7BA
:107C400083BF0000A0B10200185A00202DE9FC5F9C
:107C50000E008346DDE90C47C6F1000098469246C7
:107C6000814600D40846012503E000BF90FBFAF0EE
:107C70006D1C5045FADAA84500D9454624B1002EBE
:107C800001DB780700D5641EB80702D5B8F1000FF4
:107C90000AD0F80708D13CB1A54205D220215846A8
:107CA000641EFFF78DFCF6E7002E02DA4E462D210A
:107CB00002E0780703D52B215846FFF781FC07F037
:107CC000030002280BD1B8F1000F08D13CB1A54246
:107CD00005D230215846641EFFF772FCF6E7CDE965
:107CE0000047434652463146584603F083F9BDE803
:107CF000FC9F000070B50D46044600684FF4887183
:107D000001F09AFE4FF49071206801F095FE4FF457
:107D10009271206801F090FE4FF4A271206801F08A
:107D20008BFE20681249C0F804132068690740F3ED
:107D30000730090E002806DA00F00F0000F1E020FD
:107D400080F8141D03E000F1E02080F800142068A2
:107D5000012140F3073000F01F02914040098000EC
:107D600000F1E020C0F88012C0F8001170BD0000E2
:107D700010030200024600201268530713D502F0D8
:107D80000300012802D002280CD105E0C2F38310C1
:107D90000B68801C184404E00223086803EB92522D
:107DA000104408600120704710B509892AB1D088B5
:107DB000491C814218D1002010BD90F8C62202EB68
:107DC0008204C4EB821200EB420212899142F2D08B
:107DD000491C198090F8C61201EB8102C2EB811197
:107DE00000EB4100008902E01980D088401E5880D5
:107DF000012010BD90F82E00C0F3C100012803D06F
:107E0000032801D0002070470120704770B5054657
:107E10001848194A0C46801A0978C008032202EB58
:107E2000004001290FD0022923D12379628813A1B0
:107E300001F023FA207900284FF0020015D0BDE8A8
:107E40007040FFF741BB628818A101F00FFAFEF7FE
:107E5000A3FD08B1FEF730FE2846FFF7F5F900282C
:107E600007D0BDE87040FEF727BEBDE87040FFF7C1
:107E700023BB70BD38BD0200E0BC02004C696E6BD4
:107E800020307825782C20427574746F6E207374BE
:107E9000617465206368616E676564206F6E207031
:107EA00065657220746F2030782578004C45442039
:107EB000427574746F6E20536572766963652064D1
:107EC0006973636F7665726564206F6E20636F6E91
:107ED0006E5F68616E646C65203078257800000004
:107EE0001721018041800021017141711B218171A5
:107EF000C17170472DE9F047394E002780463D4655
:107F0000DFF8E090D6F804A057E003D00446D0F89C
:107F10001C8035E099F8002002EB4201521CD2B2DD
:107F200089F8002009EBC10199F80230091D9A4235
:107F300001D189F8005048680A780446012A12D015
:107F4000022A02D0032A3BD108E002F017FE00B15A
:107F50000127257434E00574C06900E070680028CA
:107F6000F9D170602CE0207C50BB88686060C868E4
:107F7000A0600869E0604869A061F07800B16560C0
:107F80006268B168184B501A20F07F40984202D2C4
:107F9000A168084406E0881AA16820F07F40814269
:107FA00002D9081A206000E0256065600120A56004
:107FB00020742046E56102F0C3FDB8F10000A4D1B1
:107FC00099F8001099F801008142A3D117B971689E
:107FD000514502D00120BDE8F0870020FBE70000FA
:107FE000385A00202C610020FFFF7F002DE9FF415F
:107FF0000026234800F049F92148001F074600F0F9
:1080000044F9204C60680090A56800E0009869463B
:10801000284004EB80000C30FFF7ACFE0028F5D1BF
:1080200001AA009901EA050304EB8303491CDB68FC
:1080300042F82030401C00910228F2D3019800F051
:10804000030001280BD0022810D10198032101EB75
:1080500090500099BDF80A6001EB900005E001988E
:10806000BDF80A60C0F3831008440090384600F061
:1080700009F908B10098606004B03046BDE8F081AD
:1080800000680020E863002008B54FF4004100209C
:1080900001F052F908B1FEF70FFD00F0BBFFFEF74B
:1080A00029FD08B1FEF708FD0120FFF7DBF940F2DA
:1080B000666201212A48FEF781FC08B1FEF7FCFC4C
:1080C00001F050FA08B1FEF7F7FC01F0E1FB08B14E
:1080D000FEF7F2FC002000906946012001F090FAC2
:1080E00008B1FEF7E9FC684601F00CFB08B1FEF7A9
:1080F000E3FC00211B4800F051F908B1FEF7DCFC5D
:108100001948FEF79DFE08B1FEF7D6FC154D17483D
:1081100000244C35CDF8000005EB04106946FFF74C
:10812000CBF808B1FEF7C8FC641C082CF4D3FEF7AA
:1081300065FE02F073FB0E480E49401AC008032189
:1081400001EB00400CA101F08DF802F093FB00BFA1
:1081500000F06EFF0028FBD101F018FAF8E70000EC
:1081600068430020CC5A0020157902000D7E0200E1
:1081700038BD0200E0BC02004D756C74696C696E1C
:108180006B206578616D706C6520737461727465C5
:10819000642E00002DE9F047C5881E1DB6FBF5F7DB
:1081A0008946B6FBF5F1044605FB176C4079166865
:1081B0006843DDF820A0F718001F874200D9C61ACF
:1081C000166001E02468491E0029FBD1A5EB0C07CD
:1081D0008846B74216D818E004EB0C00001D09EBE6
:1081E0000803BAF1000F3A4602D00146184600E0F3
:1081F0001946FEF7A7F82468F61B4FF0000CB844A8
:10820000B54201D9374600E02F46002EE4D1BDE843
:10821000F087000030B5024651B101F0ABF8002103
:10822000074C08E034F821301568AB4202D11160E8
:10823000002030BD491C8142F4D3052030BD000030
:108240000000000001F01F0301229A40D2434909B7
:1082500000EB8100114600F021B84A0950F82200D5
:1082600001F01F0201219140084000D00120704719
:1082700001F01F0301229A40490900EB81001146D9
:1082800000F01CB8002100F00FB8012100F016B872
:1082900008B56A46FDF7F1FF009808BD08B56A46C3
:1082A000FDF7D1FF009808BD08B56A46FDF7CBFF82
:1082B00008BD08B56A46FDF7ADFF08BD08B56A46BA
:1082C000FDF7B4FF009808BD08B56A46FDF7E2FF68
:1082D000009808BD38B5044600258DF80050684662
:1082E000FEF786FC21686268086890420ED9401E3D
:1082F00008600178238AE26801FB0325227A21685D
:10830000101AC0B20A79824200D208719DF80000AA
:10831000FEF792FC284638BD38B5054600208DF89A
:1083200000000C466846FEF763FCE868298A201ABC
:10833000B0FBF1F12A681068431C136001709DF8CE
:108340000000FEF779FC38BD10B530B1017A426803
:108350000368891AC9B21A6006E00E2010BD0368CE
:108360001A68541C1C601170491EC9B2F7D200680B
:1083700000210171084610BDC20800F0070301206A
:10838000895C98400840704710B5C20800F00703A8
:10839000885C01249C402043885410BD70B50400C3
:1083A00010D01720A164208060801B202071002540
:1083B00004EBC500801DFFF793FD6D1C082DF7D35E
:1083C000002070BD0E2070BD2DE9F04185888EB073
:1083D0000C46082D7ED20188474E4FF00008242914
:1083E00040D006DC102909D011290CD023295FD1F7
:1083F00054E03A290DD055295AD12EE001462046A5
:1084000001F074FF54E004EBC500801DFFF768FD28
:108410004EE0294604EBC107408937F8062F824217
:1084200000D810467880172800D217207880A06CDA
:1084300070B1787960B1D6E90002CDE90002ADF8FB
:1084400002107888ADF80400A26C20466946904777
:1084500087F8058087F804802AE00146204602F06C
:1084600011F825E0011D2C226846FDF76BFFBDF8D1
:108470000000BDF8042004EBC0014A73A26CBAB13D
:10848000D6E90423CDE90B23ADF82E00487B8DF807
:108490003000A26C20460BA9904709E004EBC5030D
:1084A000017A187B884200D201462846FFF7D2F9AC
:1084B00004EBC504A07A00281AD0E1882846A5DF7D
:1084C000012590B1112813D001F096FA02460B480D
:1084D0000B4900E00CE0401AC0080EB005EB00406C
:1084E000BDE8F04107A100F0C1BE84F80A80E57242
:1084F0000EB0BDE8F081000068B10200E8BC0200E7
:10850000E0BC020073645F626C655F6761747463F2
:108510005F65786368616E67655F6D74755F7265CE
:10852000717565737428292072657475726E65643F
:108530002025732E000000002DE9F041044600F1D3
:108540002E0700F1240590F82C6090F8230086B0E7
:1085500001F10208002814D08BDF14216846FDF7D2
:108560000AFF33462A46394640468CDF06218DF8FD
:1085700000100190002804D0E16B002901D068466A
:10858000884706B0BDE8F0814FF4C87141850621E7
:1085900081841821C18400210185704710F82E1FA5
:1085A000A02242805022828021F018010022C28045
:1085B00041F0040101700121417070472DE9F04143
:1085C00020B11AB121B10720BDE8F0810E20FBE7F0
:1085D000054600F1200490461046FDF7D7FE10F046
:1085E000FF0001D0202801D90C20EDE7207808B148
:1085F0000420E9E70026374605EB46104146FDF723
:10860000CCFE80B1761C16F0FF06F5D04046FDF793
:10861000BDFE02462078414605EB4013401C207009
:108620001846FDF78FFE3846CEE720B1002180F8CE
:108630002110084670470E20704710B50B46040005
:1086400002D0980702D009E00E2010BD580705D4CB
:10865000D80603D4180701D4072010BD2046FFF721
:10866000E4FFD80702D0012084F8210084F82220FA
:10867000002010BD70B50D46040012D02321E26326
:10868000FDF779FEEDB1287984F82300287B84F882
:108690002C00296839B10E2204F12E00FDF752FE9C
:1086A00004E00E2070BD2046FFF778FFA86820B1D7
:1086B000016861624068A0620CE02046FFF764FF39
:1086C00008E02046FFF76AFF2046FFF75DFF002025
:1086D00084F8230004F1400020661F20A4F8640001
:1086E000002070BD2DE9F04F87B00F4604464FF0D3
:1086F000000A564614216846FDF73DFE04F12E009F
:1087000004902046FFF776FB010004F1600005901D
:1087100010D002208DF800000197E16B6846884771
:10872000002005998ADF39462046FFF705FF07B08C
:10873000BDE8F08F94F8229094F821004FF00008E3
:10874000E8B194F820B0B88B4FF0010A00250690EC
:1087500013E000BF04EB4512B8690699FEF702FB6F
:1087600048B19DF808004FF0010840F001008DF875
:108770000800761C03E06D1CEDB25D45EAD301975D
:10878000B9F1000F01D0564502D038EA090007D0F0
:1087900000208DF8000039462046FFF7CDFE02E0AC
:1087A00003208DF80000E16B09B16846884700207E
:1087B00005998ADFBBE770B50D46014601F1080255
:1087C0000C1D284609882E3586B0102935D01B2966
:1087D0001FD01D2917D0202942D1064614216846F2
:1087E000241DFDF7C8FDF06B002839D005208DF859
:1087F000000004952068019060680290207A8DF84E
:108800000C00F16B2AE006B01146BDE87040FFF79E
:1088100069BF064614216846241DFDF7ACFD20788B
:1088200001281DD1F06B00281AD004208DF800001B
:10883000049520788DF80400E3E706461421684685
:10884000FDF799FD07208DF80000201D019020887C
:10885000ADF808000495F16B002901D068468847FF
:1088600006B070BD30B585B0040025D0142168462F
:10887000FDF781FD8BDF2046FFF7BCFA012528B10B
:10888000E16B19B18DF800506846884704F160012A
:1088900004F12E008ADF044608280FD074B108487E
:1088A00008492246401AC00805EB004006A100F026
:1088B000DDFC204605B030BD0E20FBE70020F9E7C7
:1088C000F0BC0200E0BC020073645F626C655F672D
:1088D00061705F7363616E5F73746172742072653F
:1088E0007475726E656420307825780000F18040E0
:1088F0000068002800D00120704708B500F18040D2
:10890000002101600068009008BD000070B50B4CAC
:10891000207808B185250FE00020A060606020610C
:10892000E060074801F0A6F8054600F0FDFF08B931
:1089300001F088F801202070284670BD3C600020BE
:108940004D77020038B500258DF800506846FEF7D7
:108950004FF9074CE068401EE060E06810B901F094
:1089600099F8A5709DF80000FEF766F938BD000083
:108970003C600020F0B505460478154889B01646DD
:1089800040F82420124A08690832A2F10C0742F884
:108990002400487F385520226846FDF7D3FC049414
:1089A0002878385C48B10EB10A4A00E000226946D6
:1089B000281D01F00FFB09B0F0BD0EB1064A00E022
:1089C0000022694605F10C0001F0D6F9F3E700003A
:1089D000F4590020D1AE02001DAD02000FB408B55D
:1089E0000399002904D004AA00926A4600F00FF807
:1089F00001B05DF814FB10B582680446002A05D06A
:108A0000D4E90403216898470020A06010BD2DE937
:108A1000FC4791460C00804676D014F8011B39B112
:108A200025290ED04046FEF7CBFD20780028F4D152
:108A300098F80C00002867D04046BDE8FC47FFF7D7
:108A4000DABF0020012221782B291BD02D2902D04A
:108A5000302908D102E040F0010001E040F00200BE
:108A6000641C002AEFD100252A290ED02178A1F11B
:108A700030020A2A11D205EB850201EB4205641C83
:108A8000303DF1E740F00400EAE7D9F800100B1D93
:108A9000C9F800300968641C0D44217800232E2990
:108AA0000BD114F8011FA1F130020A2A05D203EB01
:108AB000830201EB4203303BF3E76C290DD06829B8
:108AC0000BD0692921D00BDC252918D0582931D0A9
:108AD00063290ED0642915D117E014F8011FECE7C3
:108AE000702969D0732932D075291BD0782909D112
:108AF00020E0D9F80000011DC9F8001001784046B7
:108B0000FEF75EFD641C90E76CE0D9F800100A1DCA
:108B1000C9F800200968CDE900500A224046FFF755
:108B200095F8EFE7D9F800100A1DC9F80020096888
:108B30000A2206E0D9F800100A1DC9F800200968C9
:108B40001022CDE90050404602F054FADAE7D9F895
:108B5000001000270A1DC9F800200E68C00705D1C3
:108B600012E04046761C7F1CFEF72AFD3178002972
:108B7000F7D104E0202140466D1EFEF721FDBD42E5
:108B8000C0D9002DF6D1BDE74EB13046FDF7FEFB52
:108B9000074604E0202140466D1EFEF711FDBD4250
:108BA00006D9002DF6D103E04046761CFEF708FDFD
:108BB00031780029F8D1A5E7D9F80000011DC9F8DE
:108BC0000010056830214046FEF7FAFC7821404647
:108BD000FEF7F6FC08200021CDE900010346102233
:108BE0002946B0E7BDE8FC872DE9FF411C46DDE9D9
:108BF0000A7815460E46684600F0AAF846EA45018E
:108C000041EA840141EA072242EA0841009A00EB66
:108C10008200C0F80017BDE8FF812DE9FF411C4626
:108C2000DDE90A7815460E46684600F09FF846EAE8
:108C3000450141EA840141EA072242EA0841009ADB
:108C400000EB8200C0F80017BDE8FF812DE9FF416D
:108C50001C46DDE90A7815460E46684600F094F891
:108C600046EA450141EA840141EA072242EA084115
:108C7000009A00EB8200C0F80017BDE8FF812DE9E3
:108C8000FF411C46DDE90A7815460E46684600F0AD
:108C900089F846EA450141EA840141EA072242EAAD
:108CA0000841009A00EB8200C0F80017BDE8FF8180
:108CB0001CB5002100910B4601220191FFF7C6FF70
:108CC0001CBD1CB5002100910B4601220191FFF74C
:108CD000D6FF1CBD1CB500220B4600921146019226
:108CE000FFF7B4FF1CBD1CB500220B4600921146D5
:108CF0000192FFF7C4FF1CBD1CB5002100910B467B
:108D0000012201911146FFF7A1FF1CBD1CB50021F6
:108D100000910B46012201911146FFF7B0FF1CBDE7
:108D200013B50C46684600F021F8009900EB81016C
:108D3000D1F8002722F44032C1F80027009900EB57
:108D40008100D0F8001741EA0441C0F800171CBDAB
:108D50000168202902D24FF0A040704701F01F01A6
:108D6000016001487047000000030050016820299D
:108D700002D24FF0A040704701F01F01016001488E
:108D800070470000000300500168202902D24FF014
:108D9000A040704701F01F010160014870470000CA
:108DA000000300500168202902D24FF0A040704714
:108DB00001F01F01016001487047000000030050EE
:108DC00001B56846FFF7D2FFD0F810050099C840FA
:108DD00000F0010008BD01B56846FFF7D5FF009A15
:108DE00001219140C0F8081508BD01B56846FFF79C
:108DF000D9FF009A01219140C0F8081508BD38B587
:108E000001240090684631B1FFF7A2FF00998C4021
:108E1000C0F8084538BDFFF79BFF00998C40C0F8AB
:108E20000C4538BD1CB5094C0144D4E90034CDE9EA
:108E300000346C4606E000BF54F82030D3F81035FB
:108E4000401C08C28142F7D81CBD000090B102004E
:108E5000034908B50844002101600068009008BD7E
:108E60000060004002494058012800D000207047AF
:108E70000060004030B5154A01460020D2F8104489
:108E800023460AE0DB681D79854205D1401C0A288B
:108E9000F6DB4FF0FF3030BD1B68002BF2D1431CD6
:108EA000F9D0CB681871D2F8103443B1DB68CC68C4
:108EB0001B682360D2F81024D268116030BDC2F85C
:108EC0001014C96800220A6030BD0000E863002069
:108ED000F0B595B01C4615460F4608461A9E00F0A0
:108EE0001BFB182109A8FDF746FA0E96CDE9095497
:108EF0000023082203A9384600F023FB05980690BA
:108F0000BDF81000ADF81C00BDF81200ADF81E0051
:108F100000208DF821000398082600F003000128A6
:108F200002D0022818D032E003983346850AC0F3F5
:108F3000C2008DF8200003980FA9C0F38314A2008B
:108F4000384600F0FEFA09A8009006AB22460FA9A9
:108F5000284600F03DFA1AE00398840DC0F3C200E1
:108F60008DF82000082C01D2254600E00825334664
:108F70002A460FA9384600F0E4FA2E44641B09ABD8
:108F800006AA29460FA800F081F9002CEAD138463C
:108F900000F0C8FA15B0F0BD7047012001F0DCBE4A
:108FA000084810B50178084A515C19B1001D01F05C
:108FB0009DF802E00C3000F0ABFFBDE8104000204F
:108FC00001F0CABE585A0020F059002008B5034AE3
:108FD00000924023024AFFF77BFF08BD85A90200EB
:108FE000506200200A4A012902EBC00007D0022982
:108FF00007D0032907D0042907D00020704702209A
:10900000704704207047007970474079704700002E
:10901000E0BC020010B5FFF7C0FF04210348FFF7D2
:1090200029FF02490120C968487110BDD0BC020067
:109030002DE9F04F8DB0FEF7D3FA18B100200DB036
:10904000BDE8F08F7E4C4FF0000BC4F818B4BFF3AE
:109050004F8F60680290A568D846284004EB8000D6
:109060000CE000BFD4F8180470B92168029881425E
:1090700001D86160E2E7284004EB80000C3002A9CF
:10908000FEF778FE0028EDD1002005AA029901EA3A
:10909000050304EB8303491CDB6842F82030401CC5
:1090A00002910228F2D3059800F00300022802D0B2
:1090B00001284DD0AAE005985022810D8946B2EBD7
:1090C000905F00D850210E4666F39F5005900831FE
:1090D0005C4800F0D8F9070078D000F01DFA43464C
:1090E000082205A9384600F034FA029908F1080A66
:1090F0002940681A8000001D864222D9504D0C3547
:1091000030B1C2B204EB8101301A90460C3104E058
:109110002946F2B2002590462846C6B25346384644
:1091200000F017FA0AEB080325B132462946384603
:1091300000F00FFA029909F1030001EB9000029090
:109140003BE004EB81015346324638460C31EFE7F1
:109150000598C0F38310062800D30620059960F314
:109160008911C1F38310801C05918100354800F0FE
:109170008AF907004AD000F0CFF94346082205A932
:10918000384600F0E6F908F1080800260FE00298DA
:10919000434600EA0501401C04EB810102900422D1
:1091A00038460C3100F0D5F908F10408761C059812
:1091B000C0F38310B042EAD847B1D4F81054D4F8C1
:1091C000180478B1384600F0ADF934E01EE0E868E4
:1091D0004079012804D12A68284639461268904708
:1091E000E8680568002DF2D1384600F09BF98DF84B
:1091F00000B06846FDF7FCFCD4F8180408B90298E2
:1092000060609DF80000FDF717FD14E0D4F81044ED
:1092100005E02168204689688847E0680468002CDA
:10922000F7D109480949401AC008022101EB004062
:1092300007A100F017F8FEF7D3F980F00100FEE671
:10924000E863002058BD020038BD0200E0BC020007
:109250004261636B656E647320666C7573686564E8
:109260000000000000231A4601F0E4BB08B501230A
:1092700000926A4601F0DEFB08BD1CB5CDE9002373
:1092800002236A4601F0D6FB1CBD00002DE9F04721
:109290000E4680461C46924608293ED894F80C900B
:1092A000002020731946104601F0ECF90025B54264
:1092B00006D218F805201AA12046FFF78FFB03E01D
:1092C00019A12046FFF78AFB6D1C082DEFD317A1CB
:1092D0002046FFF783FB0025B54210D218F8057031
:1092E000FDF72CF80068C05D10F03E0F01D03A4643
:1092F00000E02E220EA12046FFF770FB03E00DA137
:109300002046FFF76BFB6D1C082DE5D3012221469B
:10931000504601F099F984F80C90BDE8F087000000
:109320002025303278000000202020007C00000042
:1093300025630000200000000B4810B5FF2181606C
:10934000002101604160C0F81814C0F8141480F8BE
:109350002014064800F0E4F8002803D1044800F087
:1093600037F9002010BD0000E863002058BD02005E
:1093700054B3020002480349401AC0087047000075
:1093800058BD0200E0BC020013B56846FEF742FF7C
:1093900008B100201CBD0248009950F831001CBDE6
:1093A000E0BC020070B509480125D0F8104480F8EF
:1093B000205407E0E06845712168204649688847E5
:1093C000E0680468002CF5D170BD0000E86300205F
:1093D0002DE9FF4781460C9D00200C462F7B28730A
:1093E000984616462946184601F04CF9072E42D2F7
:1093F000DFE806F004090F161F2A36004946284602
:10940000FFF7ECFA37E0494628462268FFF7E6FA0C
:1094100031E0D4E9002349462846FFF7DFFA2AE085
:10942000A0680090D4E9002349462846FFF7D6FA01
:1094300021E0D4E90201CDE90001D4E90023494645
:109440002846FFF7CBFA16E004F1080007C88DE8BC
:109450000700D4E9002349462846FFF7BFFA0AE08F
:1094600004F108000FC88DE80F00D4E90023494635
:109470002846FFF7B3FA00222946404601F0E4F8F7
:109480002F73BDE8FF872DE9F041058A80462D1F27
:109490004819C01CB0FBF5F0C6B24046FEF71AFFF3
:1094A000040019D00020207101206071E5800027A0
:1094B0002546761EC4F800800BE04046FEF70AFF02
:1094C00060B16179491C6171286005467F1CC0F854
:1094D0000080B742F1D32046BDE8F081204600F07D
:1094E00002F80020F8E72DE9F041457901466B1EAE
:1094F000002201E00968521C9A42FBD30F68014622
:10950000002605E038460C68FEF706FF2146761C6B
:10951000AE42F7D3BDE8F0810121001DFEF7B8BED1
:10952000FEF712BF10B504460121001DFEF7CCFE68
:1095300010F0FF0F04D12046BDE81040FFF7D3BF65
:1095400010BD1CB501920122009201AAFEF722FE75
:109550001CBD1CB501920022009201AAFEF71AFE62
:109560001CBD0000064910B500204870091D0860A8
:10957000BFF35F8F0349044800F0FAF9002010BDE3
:109580004C5A0020E0B102004462002008B50020DF
:109590008DF800006846FDF72BFBF1EE100A20F075
:1095A0009F00E1EE100ABFF35F8F08494020C1F829
:1095B00080029DF80000FDF73FFB00F0B5F908B10F
:1095C00041DF08BD20BF40BF20BF08BD04E000E070
:1095D00082680021916082681161826851618268AD
:1095E000D1608268516080680160704720B1034992
:1095F00009680160002070470E207047D8B3020050
:109600002DE9FE4302460E460846FFF7EFFF00280D
:1096100068D100250095019506208DF800204FF0B7
:109620000808ADF8040002958DF8028069462020F4
:10963000326869DF2C492D4A891AC908012707EBCE
:10964000014430B100F0D8F9024620462849FFF71E
:109650000DFE00958DF801508DF802800195029560
:109660008DF8037069464020326869DF30B100F040
:10967000C3F9024620461F49FFF7F8FD0095019502
:1096800002958DF8007069460120326869DF30B1BB
:1096900000F0B2F9024620461749FFF7E7FD4FF404
:1096A000B0600090019502956946A120326869DF9B
:1096B00030B100F0A1F9024620461049FFF7D6FD6F
:1096C0000095019502958DF800506946A0203268FA
:1096D00069DF30B100F090F9024620460849FFF7F3
:1096E000C5FD0020BDE8FE8348BD0200E0BC0200CD
:1096F00078BB0200C0BB0200D8BA020024BB020043
:1097000084BA02002DE9F0410546076860DF804613
:1097100019491A482A68081AC608BA4219D90220F3
:1097200000EB064416A12046FFF79CFD20463A4672
:109730001FA12B68FFF7A1FD4FF08050D0F80C015E
:109740002968800200F10050421A204625A1FFF747
:109750008DFD5FEA08004FF001040AD000F04CF9DB
:10976000024604EB06402AA1FFF780FD4046BDE813
:10977000F0812F480470F9E748BD0200E0BC020008
:10978000496E73756666696369656E742052414DF2
:1097900020616C6C6F636174656420666F72207405
:1097A000686520536F66744465766963652E0000B2
:1097B0004368616E6765207468652052414D20736F
:1097C00074617274206C6F636174696F6E2066726D
:1097D0006F6D203078257820746F20307825782EB2
:1097E000000000004D6178696D756D2052414D207B
:1097F00073697A6520666F72206170706C6963614D
:1098000074696F6E20697320307825782E0000000F
:1098100073645F626C655F656E61626C65282920A8
:1098200072657475726E65642025732E00000000E9
:10983000C75A002030B5144891B00078002820D0D5
:109840005FF03405ADF8405010A903A861DF30B1D6
:10985000052816D011B0BDE83040FDF72DB903AC96
:109860000A49684600F084F807E000BFD0E900210B
:1098700020469047684600F092F802980028E1D010
:10988000F4E711B030BD0000C75A0020DCB302007D
:109890007CB5194C207808B108207CBD0120A0704F
:1098A000002001F041F8112819D0002001F054F8EF
:1098B00012480026006801908DF800606846FDF7A8
:1098C00097F90F4901A810DF05000AD00020207089
:1098D0009DF80000FDF7B0F92DB128467CBD0020B1
:1098E0007CBD0120F3E7A670667001F077F80120D7
:1098F00001F032F8F3E70000C45A002070B3020010
:10990000356A02000EB50749684600F031F805E0F7
:10991000D0E900108847684600F041F80298002816
:10992000F6D10EBD8CB302000148007870470000EC
:10993000C45A00201FB568464BDF30B1052814D04B
:1099400004B0BDE81040FDF7B7B8084901A800F021
:109950000FF806E0D0E900210098904701A800F038
:109960001EF803980028E6D0F4E71FBDF8B3020004
:10997000016009684160AFF3008010B5D0E90021B3
:109980005368994201D1002104E0D1E90034A34297
:1099900002D01946816010BD08314160F0E781684E
:1099A00000290BD0026892680A44826041684B68C3
:1099B0009A4203D108314160FFF7DFBF70470000D2
:1099C0000C4A10B502F594730EE0991AC91001EB18
:1099D000D171491002EBC1010C68844201D90B46D8
:1099E00002E005D201F108029A42EED3002010BD38
:1099F000486810BD00B2020000B5FFF7E1FF002883
:109A000000D1014800BD0000ECB102004058002820
:109A100000D00120704708B5002242504058009005
:109A200008BDD0F80403084000D00120704740581A
:109A3000002800D00120704708B50022425040584D
:109A4000009008BD09480068012110F0010F08D1FD
:109A50004FF0E020C02280F80024C0F88012C0F847
:109A600000110349012008607047000000E100E098
:109A7000180500400649024600200B790BB18520ED
:109A800070470A6001220A7100224A717047000083
:109A9000045A002004490120086004480168C1F309
:109AA00000410029FAD170470C0000401804004022
:109AB000002802D00149800108477047B1B1020077
:109AC00010B5044600F0A8FD28B12046BDE81040BE
:109AD0000021FFF725B9204600F0AAFD00280FD08D
:109AE0002046FDF7F5FD074A02EB8001D1F810355D
:109AF00023F00103C1F8103501218140C2F8081399
:109B000010BD0000006000402DE9F0410E46804687
:109B100000F082FD204D0028404616D0FDF7D8FD0C
:109B2000284490F858008009032802D001280AD060
:109B300003E04046FFF744F928B103214046BDE861
:109B4000F041FFF7EDB80221F8E700F071FD0028C1
:109B500020D04046FDF7BCFD0446104F4FF4807006
:109B600007EB840100EB8400D1F8102580B242F0AD
:109B70000102C1F81025FFF76BF9002E0AD040460C
:109B8000FDF7A6FD55F82000002803D00120A040D5
:109B9000C7F80403BDE8F081506000200060004079
:109BA0002DE9FC41DFF8C080044608EB04000027E3
:109BB00090F930001346C0170E46401C01D008270C
:109BC0004FE0B0781946C0F340022046FDF75CFD37
:109BD0000546401C44D0B07841071CD4C0070DD0C6
:109BE00068460094FFF7C2F8009900EB8100D0F8B6
:109BF000001721F00201C0F8001707E00021737878
:109C0000204600910A460191FFF707F816492046C1
:109C10006431FEF7B9FBB078800718D51348317866
:109C200000EB8500D0F81025114B1A40C0F8102524
:109C30004FF47C524FF4403302EA042203EA01411C
:109C40000A43D0F810150A43C0F8102509E008EBC4
:109C50000500327810F8581F41EA8211017000E0C7
:109C600004273846BDE8FC815060002000600040B9
:109C7000FFC0FCFF10B5FFF7A3F8002800D00120BB
:109C800010BD000070B5194D95F86A0008B10820A4
:109C900070BD0020411E2A18401CC0B282F830104E
:109CA0003028F8D300242046FDF7E0FC641CE4B221
:109CB0000C2CF8D30D490024C0204C66A1F8684054
:109CC0000B4981F8000401264020891FC1F8800259
:109CD000C1F800014FF4BE70FFF7BAF80549F0076C
:109CE000C1F8040385F86A60204670BD506000200A
:109CF00006E000E000600040034890F86A00002899
:109D000000D0012070470000506000200121B1EB1D
:109D1000507F01D1012070470020704738B50D46B3
:109D200000F0FCFC040014D000208DF80000684610
:109D3000FCF75EFF207928B19DF80000FCF77CFF5E
:109D4000112038BD0120256020719DF80000FCF72E
:109D500073FF002038BD10B500F0E0FC002802D0F1
:109D600000210160017110BD0149024801F01CB8D9
:109D7000BC600020002000402DE9F041054600793C
:109D800016460F4600EB40012D4A01EBC00102EBE5
:109D9000810494F82A1011B10820BDE8F081294906
:109DA00051F820102868FFF7B9FF08B11120F4E737
:109DB00039462846FCF75AFF666038692060300053
:109DC0004FF001062FD03F7F4FF48E712868FFF7C8
:109DD00022FE4FF4A2712868FFF71DFE28681A4979
:109DE000C0F8041328684FEA471140F307300028F1
:109DF00006DA00F00F0000F1E02080F8141D03E007
:109E000000F1E02080F80014286840F3073000F0EB
:109E10001F0206FA02F14009800000F1E020C0F8BC
:109E20008012C0F8001128680421C0F80015002035
:109E3000A061E06184F8290044F8140FA675ACE72E
:109E4000BC60002098B10200800002002DE9F047BC
:109E5000054600790B4600EB400101EBC0002349A9
:109E600001EB8004284600F043F810B11120BDE852
:109E7000F0874FF00008C4F82080A360626184F886
:109E800028804FF48E76474631462868FFF7C3FD99
:109E900028684FF00109C0F808902146286800F0B2
:109EA0001FFF606800BBD5F800A00EE094F8280002
:109EB00008B10F2716E031465046FFF7A7FD0028EE
:109EC000F4D02146504600F00BFF216A60698142C0
:109ED000F1D331462868FFF799FD0028F9D02868AA
:109EE000C0F80C90C4F814803846C0E7BC6000206D
:109EF000007900EB400101EBC000044901EB800058
:109F00004069002800D0012070470000BC6000209C
:109F10002DE9F047044600794FF0000900EB4001BD
:109F200001EBC000254901EB80072068C0F80095CF
:109F3000786880B120682249C0F8081320680121A0
:109F400040F3073000F01F0291404009800000F10B
:109F5000E020C0F880112068D0F80C25D0F81485D6
:109F6000D0F80865D0F810554FF0FF31C0F814153F
:109F7000C0F80C152068C0F80815C0F81015501C62
:109F800002D01046FEF794FEB8F1FF3F02D04046E3
:109F9000FEF78EFE681C02D02846FEF789FE701C74
:109FA00002D03046FEF784FE2068FFF7D4FE87F823
:109FB0002A90C7F80490BDE8F0870000BC6000203C
:109FC000840202000149024800F09ABFE8600020C4
:109FD000002000402DE9F0410546164600790F4665
:109FE000154A00EBC00102EB810494F8201011B176
:109FF0000820BDE8F081114951F820102868FFF7CA
:10A000008DFE08B11120F4E739462846FCF769FEB9
:10A010006660386920601EB1397F2846FDF76AFE08
:10A0200028680821C0F800150020A061E061012126
:10A03000606184F82010DCE7E86000209CB1020039
:10A040002DE9F04704460E460079204900EBC00098
:10A0500001EB800517463046FFF758FE30B1204629
:10A0600000F036F820B11120BDE8F0871020FBE7A2
:10A070006F61AE604FF49076002731462068FFF79D
:10A08000DBFC4FF4AC7841462068FFF7D5FC206834
:10A09000AA686969C0F84425C0F8481520680121FC
:10A0A0008160686878B9B14649462068FFF7BFFC0F
:10A0B000064641462068FFF7BAFC0643F4D000B1DB
:10A0C0000F27002068613846CEE70000E8600020D6
:10A0D0000079054900EBC00001EB800040690028D1
:10A0E00000D0012070470000E86000202DE9F04713
:10A0F00004460079274900EBC00001EB8007206887
:10A100004FF00009C0F80095786880B120682249B6
:10A11000C0F808132068012140F3073000F01F0247
:10A1200091404009800000F1E020C0F880112068D3
:10A13000D0F80C25D0F81485D0F80865D0F8105563
:10A140004FF0FF31C0F80C15C0F814152068C0F8A6
:10A150000815C0F81015501C02D01046FEF7B1FDCE
:10A16000B8F1FF3F02D04046FEF7ABFD681C02D0BD
:10A170002846FEF7A6FD701C02D03046FEF7A1FD72
:10A180002068FFF7E8FD87F82090C7F80490BDE845
:10A19000F0870000E8600020100302002DE9F84F6E
:10A1A00005460C460888B5F8CA1288427ED195F853
:10A1B000C602DFF824A100EB8001C1EB801005EBA3
:10A1C000400660884FF0000B00285DD13079E288AE
:10A1D000A71D8146D1B250FA82F2062A02D808445D
:10A1E000307111E0062030713C483D493288401AF8
:10A1F000C108022000EB014080463A49FFF736F8DB
:10A2000040463949FFF72EF848460023D8461BE060
:10A2100000EBC00106EB410203EB830107EB4101B8
:10A22000401CD1F802C0C2F80AC0D1F806C0C2F87A
:10A230000EC049895182A2F81480A2F81680A2F8B3
:10A240001880A2F81A805B1C31798142E0D895F819
:10A25000C61200EBC00001EB8102C2EB811105EBDD
:10A26000410136F81000098988420DD2307906285C
:10A270000AD085F8C50221882846FDF731FA010089
:10A280001AD085F8C7820BE085F8C5B25E462288F1
:10A2900069462846FDF748FB01000FD085F8C762E4
:10A2A00022882846FDF71AFC032100E004E08AF822
:10A2B00000102188AAF80210BDE8F88F9DF8000070
:10A2C0000028F9D0228801212846FDF7BFFB21880C
:10A2D000284600F063F9EFE79C5C0020E0BC020038
:10A2E000E0BC0200E8B4020030B5020070B58D8811
:10A2F000027900EBC5042273C97BA41D012902D099
:10A30000022904D101E0008800E0408820802188F3
:10A310006088814211D92846A5DF0126B0B11128F5
:10A3200016D0FFF769FB02460B480C49401AC008DB
:10A3300006EB00400AA1FEF799FFA179E07981427E
:10A3400008D92846BDE87040FDF784BA6671F4E785
:10A350002671F2E770BD0000E8BC0200E0BC02001C
:10A3600073645F626C655F67617474635F65786373
:10A3700068616E67655F6D74755F72657175657331
:10A380007428292072657475726E65642025732E99
:10A3900000000000F8B505460C460888B5F8CA125A
:10A3A00088425DD195F8C602A61D00EB8001C1EB85
:10A3B000801005EB400395F8C502618800EBC000F2
:10A3C00003EB40000A3039B329E000BF01EB410242
:10A3D00006EB42029788B7F5245F0CD06FF4245C3B
:10A3E00017EB0C070AD0012F02D0072F0BD108E082
:10A3F0005288428107E05288828104E05288C281FB
:10A4000001E05288028242892AB182891AB1C28946
:10A410000AB1028A1AB9491C32888A42D6D8002663
:10A420008DF8006095F8C5021979401C884203D167
:10A4300001208DF8000018E085F8C50222886946E1
:10A440002846FDF771FA01000BD085F8C762228813
:10A450002846FDF743FB0A4803210170218841800B
:10A46000F8BD9DF800000028FAD022880121284676
:10A47000FDF7ECFA2188284600F090F8F8BD0000BE
:10A480009C5C00207CB506468D88C88806EBC50418
:10A49000A41D172800D217202188814200D8084621
:10A4A00060800020207121882846B5DF60B1FFF769
:10A4B000A3FA02460F481049401AC008012101EBD7
:10A4C00000400EA1FEF7D2FE6079002810D1B06CDA
:10A4D00000280DD01549D1E90201CDE90001ADF800
:10A4E00002506088ADF80400B26C6946304690476F
:10A4F0007CBD0000E8BC0200E0BC020073645F6247
:10A500006C655F67617474735F65786368616E67BB
:10A51000655F6D74755F7265706C7928292072654E
:10A520007475726E65642025732E000068B1020098
:10A5300070B505460C4690F8C602228800EB8001F3
:10A54000C1EB801005EB4001B5F8CA02824222D16E
:10A55000608848B100212846FDF778FA218828460E
:10A56000BDE8704000F01AB8A2680A60E068C1F85F
:10A57000060021882846FDF7B3F801000BD0002023
:10A5800085F8C70222882846FDF7A8FA0248032169
:10A5900001702188418070BD9C5C00202DE9F04154
:10A5A000044690F8C9020E46401C1949C0B284F80E
:10A5B000C902C9680327174D4FF0000E884224D204
:10A5C00084F8C5E294F8C602401CC0B200EB8001DA
:10A5D000C1EB801104EB410284F8C602A5F1180119
:10A5E00001EB800001210068106082F804E0304631
:10A5F0009BDF010007D084F8C7E232462046FDF712
:10A600006DFA2F706E80BDE8F08184F8C7E2F8E73C
:10A61000D85900209C5C00200449084490F930007F
:10A62000082801DB0120704700207047506000209F
:10A630000449084490F93000082801D201207047ED
:10A64000002070475060002010B50C46017A0529A3
:10A6500008D0407A38B1084808A102682046FEF7C1
:10A66000BDF900E01AB106A12046FEF7B7F9204671
:10A67000BDE81040FEF7BFB9A05A002025730000C6
:10A680000D0A000038B5C3880D46044633B114A046
:10A69000009015A216A12846FEF7A0F9217A0529F7
:10A6A0001CD0607A48B1A088FEF79CFC164951F88E
:10A6B000202016A12846FEF791F9A0880021FEF778
:10A6C00063FE03461049207A143951F8202001B066
:10A6D0002846BDE830400EA1FEF780B938BD000025
:10A6E0001B5B306D000000001B5B313B33316D00A4
:10A6F00025734C6F67732064726F707065642028D7
:10A7000025642925730D0A00A05A00202573000036
:10A710003C25733E2025733A2000000003498842FF
:10A7200001D103487047002070470000002000401E
:10A730000C5A002070B50C4B00210A4ADC680DE071
:10A7400002EB81058678AD78B54206D132F821500A
:10A750000688B54201D1586870BD491CA142EFD3AB
:10A76000002070BD845C0020D859002070B50126FF
:10A7700070044FF0E0210025C1F88001084C401022
:10A78000C4F84803C4F8080366602F20FFF790F967
:10A79000A660044C2F20A560FFF78AF9A57070BD54
:10A7A00000100140385A002070B5054688690C46F3
:10A7B00000284FF4847128460AD0FFF72CF9D5F809
:10A7C0001805626AE1688854606A401C606270BD66
:10A7D000FFF721F9D5F8180570BD1FB501238DF8D5
:10A7E0000030CDE90121D0E90012684690471FBD35
:10A7F0001FB501238DF800308DF808100192D0E9C3
:10A800000012684690471FBD0178062904D14068B0
:10A81000002801D0FCF750B9704700001FB5002098
:10A82000009001900290039001208DF804008DF8B3
:10A830000C000D4A69460D48FDF71CFF08B1FCF7F6
:10A840003BF90B4A00210948FDF7B8FE08B1FCF7B7
:10A8500033F9002201210548FDF7EFFE002801D061
:10A86000FCF72AF91FBD000009A80200985B002030
:10A87000D8B002000B480C4910B5401AC00803219B
:10A8800001EB0040094A0AA1FEF7F0FC1148FDF770
:10A89000E9FF08B1FCF710F9BDE810400020FCF713
:10A8A00013BE000038BD0200E0BC0200D8B00200B8
:10A8B0005374617274207363616E6E696E67206693
:10A8C0006F7220646576696365206E616D65202511
:10A8D000732E0000985B002038B50021012548B197
:10A8E00001280CD0032809D1FFF7ACF8BDE83840A7
:10A8F000FEF728B84FF0E020C0F8805138BD8DF841
:10A9000000106846FCF774F9064C207808B9FDF78A
:10A91000FDFFE068401CE060A5709DF80000FCF7BA
:10A920008BF938BD3C6000203EB5044609496846B5
:10A93000FFF71EF808E000BFD0E90021204690474D
:10A9400030B16846FFF72BF802980028F4D13EBDDD
:10A9500011203EBD74B302003EB504460849684666
:10A96000FFF706F807E000BFD0E900212046904736
:10A970006846FFF714F802980028F5D13EBD0000A4
:10A9800080B3020070B50D4C0020D2B22070201DA3
:10A990000B4D0378EB5C1BB1001DFFF751FB02E090
:10A9A0000C30FFF753FA08B1FCF786F860780028FE
:10A9B00002D021780029FAD070BD0000545A00203E
:10A9C000F0590020002805D10349012048700020DB
:10A9D000FCF7A8BE704700003C60002010B51620B0
:10A9E000FBF786FFA0B1114890F800044009082841
:10A9F00011D20121814011F0EC0F0CD00C4882687B
:10AA00004FF480016AB1016841F48001016010BD1A
:10AA100042F2010001E042F20200BDE81040FCF702
:10AA20004BB84FF0E020C0F8001110BD16E000E078
:10AA3000386200202DE9F84F204D9246894606469F
:10AA40009846012269461846AF68FCF771FD58B375
:10AA5000009800210446801C09E000BF00EA0703BB
:10AA60005AF8212005EB8303401C491CDA6041455C
:10AA7000F4D34FEA164AFDF77DF84AEA0041601C1C
:10AA8000384005EB80003C4005EB8402C160D06893
:10AA900066F3C50068F3891069F39F2020F0030076
:10AAA000401C20F00400D06095F8200402E000BFB4
:10AAB000FEF7BEFA0028FBD1BDE8F88FE86300205E
:10AAC0002DE9F84F1D4C00256846D4E901A6FDF795
:10AAD0005BF8002738B30023009A61681CE0D1F8C6
:10AAE00000C00846944503D9ACEB02020A6015E0A9
:10AAF000A2EB0C0263440760D0F80CC0C169814628
:10AB0000BCF1000F08D006EB030828F07F48C0E92D
:10AB1000018CC9F81C5005460029E0D12846616027
:10AB2000FDF7E8F903E02846FDF7E4F910B15046D7
:10AB3000FCF71AFEE770BDE8F88F0000385A0020D5
:10AB40000D4B10B5596831B102680C68A24204D8A7
:10AB5000A21A0A60C161586010BD0B4603E00B46A3
:10AB6000C969121B21B10C689442F8D3A41A0C6075
:10AB70000260C161D86110BD385A00202DE9F04152
:10AB8000144E77683D462C4603E0844204D02546A7
:10AB9000E469002CF9D11BE0D4B1A5420BD1F869CE
:10ABA000706040B90C49012088600021B160F070EC
:10ABB0002F20FEF77DFF2168E069E86110B102688F
:10ABC000114401607068874202D00120BDE8F08125
:10ABD0000020FBE7385A0020001001407CB50646F3
:10ABE00000240D468DF800406846FCF701F801A8E6
:10ABF00000F05AFA70B10570094946609DF80400EA
:10AC000048709DF80000FCF717F81420FBF70EFDC4
:10AC100020467CBD04249DF80000FCF70DF8F7E702
:10AC20002C6100202DE9F041194D6C68002C2CD0CE
:10AC3000184800270068A968B846401A20F07F46E7
:10AC40002068B0420CD82146361A0744E469087CD3
:10AC500020B181F81080886949698847002CEFD1BC
:10AC600029786878814206D1401CC0B268700228F9
:10AC700001D185F80180064869780C3040F82170D0
:10AC8000BDE8F0411420FBF7D1BCBDE8F081000025
:10AC9000385A00200415014010B50F4CD4E90010BB
:10ACA000884211D000EB80020C4800EB82018B78C7
:10ACB0005BB130F822000831A3DF002804D12079ED
:10ACC000401C00F00700606010BD30F82200898849
:10ACD0000022A1DFF1E70000E85900209C5F00207E
:10ACE00070B50C4605464FF48E71FEF794FE216A4E
:10ACF000A068415C206A401C2062C5F81C1570BD2C
:10AD00001FB500228DF800200291816801914261F7
:10AD1000D0E90012684690471FBD00001FB50A46E3
:10AD200001788DF8001041680191017A8DF80810C2
:10AD3000C0680390044850F82210083850F82220C8
:10AD4000684690471FBD0000FC59002001490120C2
:10AD500008707047545A002010B588B0044620226D
:10AD60000E496846FBF7EEFA06200090C01F0190DE
:10AD7000029003904FF0EB7006900CB1084A00E08F
:10AD8000002269460748FDF7F5FD08B1FBF794FE80
:10AD90000448001F447008B010BD000034B3020026
:10ADA0004DAD0200585A00202DE9FF470C460546DC
:10ADB0004FF40071FEF735FE01274FF401780026AD
:10ADC00018B34FF4927949462846FEF71FFEE0B1CA
:10ADD00049462846FEF71FFEC5F8088394F8290067
:10ADE00000B96F6002208DF80000D5F88004C5F826
:10ADF00080040390A0690290E0680190A661E6617A
:10AE0000D4E900126846904728E004212846FEF75E
:10AE100008FE18B34FF484712846FEF7F7FDE8B139
:10AE200021462846FFF7C0FC616AA069884215D117
:10AE3000E06938B1E268616AA0612069E661666232
:10AE4000E06008E094F8290000B96F60C5F8088355
:10AE5000A661E268616A2046FFF7BFFC4FF48E7876
:10AE600041462846FEF7D2FD78B1206A61698842E2
:10AE700002D294F8280020B341462846FEF7CBFDC5
:10AE8000616911B12046FFF73BFF4FF4A2784146BC
:10AE90002846FEF7BBFD002818D041462846FEF79D
:10AEA000BAFD94F8290000B12F60A06900280DD0E8
:10AEB000A661E268616A04B02046BDE8F047FFF78A
:10AEC0008CBC21462846FFF70BFFDEE7BDE8FF8775
:10AED0001FB50A4601788DF8001041680191017A8A
:10AEE0008DF80810C0680390044850F82210083804
:10AEF00050F82220684690471FBD0000FC590020F2
:10AF00002DE9FF410C464FF4927705463946FEF78E
:10AF10008EFD0026C0B139462846FEF78DFD022081
:10AF20008DF80000D5F88004C5F880040390D5F8AA
:10AF30003C058DF80800E0680190A661E661D4E95F
:10AF400000126846904723E04FF488773946284638
:10AF5000FEF76DFDE0B139462846FEF76DFDD5F8E8
:10AF60003C15A069884213D1E06960B1E268D5F868
:10AF7000000220F02000C5F80002E069A06120690D
:10AF8000E661E06001E0A661E2682046FFF730FC80
:10AF90004FF4A27739462846FEF749FD60B139469D
:10AFA0002846FEF749FDA06930B1A661D5F83C15E9
:10AFB0002046E268FFF71CFC4FF49077394628469C
:10AFC000FEF735FD002813D039462846FEF734FD3C
:10AFD000606900280CD0D5F84C058DF800608DF81C
:10AFE0000800A06801906661D4E9001268469047A5
:10AFF000BDE8FF812DE9F05F8346DDE90A4A994605
:10B0000090460D460846012703E000BFB0FBF8F06C
:10B010007F1C4045FAD2B94500D94F465FEACA7055
:10B0200012D18CB15FEA8A7002D5B9F1000F01D05C
:10B03000202607E0302605E031465846641EFCF71E
:10B04000BFFA0CB1A742F7D35FF00106B9F1010FC7
:10B0500002D9A9F1010903E0B5FBF6F0404502D39E
:10B0600006FB08F6F2E7DFF83C9000BFB5FBF6F010
:10B0700000FB165519F800105846FCF7A1FAB6FB6C
:10B08000F8F6002EF2D15FEACA7009D0002C07D082
:10B09000A74205D220215846641EFCF791FAF5E735
:10B0A000BDE8F09FB6B102000A494A788B78521C7D
:10B0B000D2B2934200D100220B78934201D10020FA
:10B0C00070470270487800EB400001EBC000001DA3
:10B0D000704700002C6100204E6F726469635F55F9
:10B0E000415254000D0E0F100B0C181901000000F6
:10B0F0000000000000000000000000000000000050
:10B10000000000000000000000000000000000003F
:10B11000000000000000000000000000000000002F
:10B12000000000000000000000000000000000001F
:10B13000000000000000000000000000000000000F
:10B1400000000000000000000000000000000000FF
:10B1500000000000000000000000000000000000EF
:10B160000000000000000000770A0000000000005E
:10B17000770A0000000000007ADA000000000000FA
:10B1800023D1BCEA5F782315DEEF12120000000025
:10B190000000005000030050699D0200C59F02009E
:10B1A000030000000C61002000000000000000000F
:10B1B0000338FDD8704730313233343536373839BB
:10B1C00041424344454600000000000000000000EA
:10B1D000000000000000000000000000000000006F
:10B1E000C8B10200E0B1020004000000556E6B6EB1
:10B1F0006F776E206572726F7220636F64650000F6
:10B2000000000000A8B902000100000054B80200CC
:10B210000200000048B6020003000000C8B80200A7
:10B22000040000001CB9020005000000FCB7020089
:10B230000600000098B702000700000004B90200F1
:10B240000800000010B802000900000074B80200F5
:10B250000A00000090B902000B00000030B60200A6
:10B260000C00000028B802000D000000F8B9020030
:10B270000E000000F4B802000F00000030B9020018
:10B280001000000064B90200110000000CBA0200B6
:10B2900012000000E0B90200130000007CB90200B7
:10B2A00080000000B0B7020081000000ECB6020090
:10B2B00082000000ACB60200830000008CB60200E1
:10B2C00084000000C8B6020085000000D4B7020068
:10B2D00086000000DCB802009000000078B7020091
:10B2E000910000006CB60200920000003CB8020021
:10B2F0000082000044B902000182000090B8020000
:10B3000002820000ACB802000084000008B702000E
:10B3100001840000B4B902000284000050B70200AA
:10B32000038400002CB70200CD8F0200A18F020021
:10B33000998F0200FFFFFFFFFFFFFFFFFFFFFFFFEF
:10B34000FFFFFFFF00000000000000000000D6012A
:10B3500006010000506300207F000000D063002041
:10B3600000000000000000000000000000000000DD
:10B370000100000760B3020070B302000800000083
:10B3800098B30200A8B3020008000000A8B30200AE
:10B39000B8B30200080000002CBE020034BE020058
:10B3A00000000000000000001CBE02002CBE0200D5
:10B3B00000000000000000006CBD020074BD02002F
:10B3C00074BD0200CCBD0200CCBD02000CBE020068
:10B3D0000CBE020014BE020068430020B8B3020095
:10B3E000D8B302000800000014BE02001CBE020018
:10B3F0000000000000000000E8B30200F8B3020003
:10B400000800000000404040404040404040414172
:10B410004141414040404040404040404040404029
:10B4200040404040400502020202020202020202C3
:10B4300002020202022020202020202020202002C0
:10B440000202020202029090909090901010101050
:10B4500010101010101010101010101010101010EC
:10B460000202020202028888888888880808080880
:10B47000080808080808080808080808080808084C
:10B48000020202024000000005B40200537461721F
:10B4900074207363616E6E696E6720666F722062DE
:10B4A0006C655F636F6E6E5F73746174655F636517
:10B4B0006E7472616C5F636F6E6E5F636F756E74D6
:10B4C000282920A3A13D204E52465F5344485F42A5
:10B4D0004C455F43454E5452414C5F4C494E4B5F87
:10B4E000434F554E540000004E6F7420656E6F75CB
:10B4F000676820737061636520666F72206368619E
:10B5000072616374657269737469637320617373C4
:10B510006F6369617465642077697468207365720C
:10B52000766963652030782530345820210000008A
:10B53000496E63726561736520424C455F474154B3
:10B54000545F44425F4D41585F4348415253207419
:10B550006F2062652061626C6520746F2073746F68
:10B560007265206D6F7265206368617261637465D6
:10B570007269737469637320666F722065616368B2
:10B5800020736572766963652100000073645F62F1
:10B590006C655F6761705F646174615F6C656E6745
:10B5A00074685F75706461746528292028726571FC
:10B5B0007565737429206F6E20636F6E6E6563749A
:10B5C000696F6E20307825782072657475726E65AB
:10B5D000642025732E000000546865207265717523
:10B5E000657374656420636F6D62696E6174696F01
:10B5F0006E206F6620545820616E6420525820706F
:10B6000061636B6574206C656E6774687320697321
:10B6100020746F6F206C6F6E672062792025752013
:10B620006D6963726F7365636F6E64732E000000E3
:10B630004E52465F4552524F525F494E56414C4919
:10B64000445F4441544100004E52465F4552524FC0
:10B65000525F534F46544445564943455F4E4F54FD
:10B660005F454E41424C4544000000004E52465F4B
:10B670004552524F525F464541545552455F4E4FD9
:10B68000545F454E41424C45440000004E52465FD7
:10B690004552524F525F4D555445585F554E4C4F91
:10B6A000434B5F4641494C45440000004E52465FC3
:10B6B0004552524F525F4D555445585F4C4F434B86
:10B6C0005F4641494C4544004E52465F4552524FF9
:10B6D000525F4D555445585F434F4E445F494E4964
:10B6E000545F4641494C4544000000004E52465FBD
:10B6F0004552524F525F4D555445585F494E49543B
:10B700005F4641494C4544004E52465F4552524FB8
:10B71000525F424C455F495053505F52585F504B07
:10B72000545F5452554E4341544544004E52465F77
:10B730004552524F525F424C455F495053505F5003
:10B740004545525F52454A45435445440000000078
:10B750004E52465F4552524F525F424C455F4950F0
:10B7600053505F4C494E4B5F444953434F4E4E45F7
:10B7700043544544000000004E52465F4552524F2C
:10B78000525F4150495F4E4F545F494D504C454DBB
:10B79000454E5445440000004E52465F4552524FBC
:10B7A000525F4E4F545F535550504F5254454400D2
:10B7B0004E52465F4552524F525F4D4F44554C4595
:10B7C0005F4E4F545F494E495449414C495A454494
:10B7D000000000004E52465F4552524F525F4D4F9F
:10B7E00044554C455F414C52454144595F494E498F
:10B7F0005449414C495A4544000000004E52465FAE
:10B800004552524F525F4E4F545F464F554E440083
:10B810004E52465F4552524F525F494E56414C4937
:10B82000445F5354415445004E52465F4552524F77
:10B83000525F444154415F53495A45004E52465F5E
:10B840004552524F525F494F5F50454E44494E4713
:10B85000000000004E52465F4552524F525F535611
:10B86000435F48414E444C45525F4D495353494E06
:10B87000470000004E52465F4552524F525F494EBC
:10B8800056414C49445F4C454E4754480000000027
:10B890004E52465F4552524F525F4452565F545784
:10B8A000495F4552525F414E41434B004E52465F05
:10B8B0004552524F525F4452565F5457495F45526A
:10B8C000525F444E41434B004E52465F4552524FE9
:10B8D000525F494E5445524E414C00004E52465F15
:10B8E0004552524F525F53544F524147455F465560
:10B8F0004C4C00004E52465F4552524F525F4E55DF
:10B900004C4C00004E52465F4552524F525F494EDA
:10B9100056414C49445F504152414D004E52465FA2
:10B920004552524F525F4E4F5F4D454D0000000053
:10B930004E52465F4552524F525F464F5242494423
:10B9400044454E004E52465F4552524F525F44525C
:10B95000565F5457495F4552525F4F5645525255B4
:10B960004E0000004E52465F4552524F525F494EC4
:10B9700056414C49445F4144445200004E52465F98
:10B980004552524F525F5245534F55524345530013
:10B990004E52465F4552524F525F494E56414C49B6
:10B9A000445F464C414753004E52465F5355434314
:10B9B000455353004E52465F4552524F525F424CE0
:10B9C000455F495053505F4348414E4E454C5F419F
:10B9D0004C52454144595F45584953545300000067
:10B9E0004E52465F4552524F525F434F4E4E5F4359
:10B9F0004F554E54000000004E52465F4552524F84
:10BA0000525F54494D454F55540000004E52465F19
:10BA10004552524F525F4255535900007761726E42
:10BA2000696E670064656275670000001B5B313BEF
:10BA300033306D001B5B306D000000001B5B313B41
:10BA400033316D001B5B313B33326D001B5B313B8F
:10BA500033336D001B5B313B33346D001B5B313B7B
:10BA600033356D001B5B313B33366D001B5B313B67
:10BA700033376D00696E666F000000006572726F8B
:10BA80007200000073645F626C655F6366675F737A
:10BA9000657428292072657475726E65642025733B
:10BAA000207768656E20617474656D7074696E6767
:10BAB00020746F2073657420424C455F4741545495
:10BAC000535F4346475F534552564943455F43489A
:10BAD000414E4745442E000073645F626C655F63AE
