:020000040002F8
:10600000285F0020F96202000163020003630200BE
:10601000056302000763020009630200000000003C
:106020000000000000000000000000000B63020000
:106030000D630200000000000F6302001163020004
:106040000967020013630200C969020013630200BA
:106050001363020013630200F16402001363020081
:106060001363020013630200136302001363020050
:106070001363020013630200136302001363020040
:1060800013630200616702001363020013630200DE
:10609000E567020013630200E96702001363020070
:1060A0001363020013630200136302001363020010
:1060B00013630200136302000000000000000000F0
:1060C00013630200136302001363020013630200F0
:1060D00013630200136302001363020013630200E0
:1060E0001363020013630200136302000000000048
:1060F00000000000136302000000000013630200B0
:10610000000000000000000000000000000000008F
:10611000000000000000000000000000000000007F
:10612000000000000000000000000000000000006F
:10613000000000000000000000000000000000005F
:10614000000000000000000000000000000000004F
:10615000000000000000000000000000000000003F
:10616000000000000000000000000000000000002F
:10617000000000000000000000000000000000001F
:10618000000000000000000000000000000000000F
:1061900000000000000000000000000000000000FF
:1061A00000000000000000000000000000000000EF
:1061B00000000000000000000000000000000000DF
:1061C00000000000000000000000000000000000CF
:1061D00000000000000000000000000000000000BF
:1061E00000000000000000000000000000000000AF
:1061F000000000000000000000000000000000009F
:10620000DFF80CD000F036F900480047F5880200AE
:10621000285F002030B4044654E8000F0D4644E8DF
:106220000053002BF8D1156030BC704730B40446E1
:1062300054E8000F40EA010544E80053002BF7D171
:10624000156030BC704730B4044654E8000F00EAD3
:10625000010544E80053002BF7D1156030BC7047AE
:1062600030B4044654E8000F80EA010544E80053C6
:10627000002BF7D1156030BC704730B4044654E8A9
:10628000000F00EB010544E80053002BF7D1156027
:1062900030BC704730B4044654E8000FA0EB010551
:1062A00044E80053002BF7D1156030BC704770B440
:1062B00004464FF0000054E8006F0D68AE4207BF7F
:1062C00044E80023012044E800630E60002B1CBF5B
:1062D0000020F0E770BC704730B4044654E8000F6B
:1062E00088422CBF451A054644E80053002BF5D1DF
:1062F000156030BC704700000648804706480047DC
:10630000FEE7FEE7FEE7FEE7FEE7FEE7FEE7FEE765
:10631000FEE7FEE7ED670200016202002DE9F05F93
:106320000546002092469B46884606468146402404
:106330001BE0284641464746224600F08AF853466D
:106340005A46C01A914110D311461846224600F011
:1063500016F82D1A67EB01084F462246012000214E
:1063600000F00DF817EB00094E41201EA4F10104C6
:10637000DFDC484631462A464346BDE8F09F202AE6
:1063800004DB203A00FA02F1002070479140C2F18C
:10639000200320FA03F319439040704700487047E8
:1063A0003CC0020040EA01039B0703D009E008C992
:1063B000121F08C0042AFAD203E011F8013B00F8CA
:1063C000013B521EF9D27047D2B201E000F8012B16
:1063D000491EFBD270470022F6E710B513460A4665
:1063E00004461946FFF7F0FF204610BD421C10F886
:1063F000011B0029FBD1801A704730B504460020EC
:10640000034600E05B1C934203D2E05CCD5C401B82
:10641000F8D030BD034611F8012B00F8012B002AFB
:10642000F9D11846704730B50B46014600202022AE
:10643000012409E021FA02F59D4205D303FA02F591
:10644000491B04FA02F52844151EA2F10102F1DCF1
:1064500030BD202A04DB203A21FA02F000217047E7
:1064600021FA02F3D040C2F12002914008431946BC
:1064700070470000064C074D06E0E06840F001035D
:1064800094E8070098471034AC42F6D3FFF7BCFEFF
:106490004CC802006CC8020070B58C1810F8015B83
:1064A00015F0070301D110F8013B2A1106D110F8AD
:1064B000012B03E010F8016B01F8016B5B1EF9D1B1
:1064C0002B0705D40023521E0DD401F8013BFAE737
:1064D00010F8013BCB1A921C03E013F8015B01F8A2
:1064E000015B521EF9D5A142D8D3002070BD000037
:1064F0002DE9F04F00268DB0DFF8A081B14604965B
:106500004FF48075012437460596284603F0E0F8DD
:1065100038B1D8F80403204203D0284603F0CEF85F
:1065200026432D1D64007F1CADB2082FEDD34FF420
:10653000BE74204603F0CCF848B1204603F0BEF804
:1065400046F0004604AA0221002003F0A1F8544CB2
:1065500016F0FF0F15D00127002537420DD008EBAC
:106560008501D1F81005D1F81015C0F3052054F8B5
:106570002520C1F3014102B190477F006D1C082D19
:10658000EBD3002E7EDA0020CDF82890411E0DF1CD
:10659000100B07AACDF82C9042F82010401C914611
:1065A0000228F9D300252E46A11911F8607F91F930
:1065B000000027F0C008401C40D007A9404602F068
:1065C00015FB40B34FEA971A404601F0A7FC54F878
:1065D00020701FB1BAF1030F03D006E0BAF1030F28
:1065E0002CD10AA9404602F009FB02A8CDF8088088
:1065F00002F0F2FF029900EB8100D0F8000704A935
:10660000C0F301400290404602F0F0FA00280298E0
:1066100002D0022802D011E003280FD1BAF1030FF3
:1066200008D10298022833D00221404602F0AEFF82
:106630006D1CEDB217B151464046B847761C042E8A
:10664000B2D3002D21D001AA0221002003F020F8AE
:1066500000205A460DF1040152F8206051F8203014
:10666000B34217D000200AAE4FEA090351F8207058
:1066700042F8207056F8207043F82070401C022821
:10668000F4D300E001E0002D8CD10DB0BDE8F08F17
:106690000321CAE7401C0228DED3F6E70060004071
:1066A000C034002000F01F02012191404009800009
:1066B00000F1E020C0F88012704700F01F020121B5
:1066C00091404009800000F1E020C0F800117047BF
:1066D00000F01F02012191404009800000F1E020FC
:1066E000C0F8001270474907090E002806DA00F0CA
:1066F0000F0000F1E02080F8141D704700F1E02049
:1067000080F800147047000070B54FF48076304672
:1067100002F014FD114CB50560B1304602F015FDD4
:106720000120C5F80803607920B901206071216853
:10673000002088474FF48276304602F0FFFC0028A4
:106740000AD0304602F001FD0220C5F80803216896
:10675000BDE870400120084770BD0000EC2C00200F
:1067600007480021C0F84011C0F84411C0F8481192
:10677000C0F84C11C0F80011C0F8041104F05EBF5D
:106780000010014000F026B970B50E46144900EB28
:10679000400001EBC0051446E86A183520B1012815
:1067A0000FD0022805D113E0284600F047F9A04297
:1067B00001D2002411E022463146284600F076F945
:1067C0000BE0284600F03AF9A042F4D20446F2E782
:1067D0003146284600F03DF90446204670BD0000D1
:1067E0009C3C002004F078BE03F0F0BC30B54FF0C4
:1067F000805000228300D0F83011C3F80C21C3F878
:106800001021624B1A60624B1B68624C2360604B24
:106810001B1D1B68241D23605D4B08331B68241D52
:1068200023605B4B0C331B68241D2360584B1033D3
:106830001B68241D2360564B14331B68241D2360E2
:10684000534B18331B68534C20342360504B1C337C
:106850001B68241D23604E4B20331B68241D2360BE
:106860004B4B24331B68241D2360494B28331B6882
:10687000241D2360464B2C331B68241D2360444B8E
:1068800030331B68434C40342360414B34331B6826
:10689000241D23603E4B38331B68241D23603C4B72
:1068A0003C331B68241D2360394B40331B68241D77
:1068B00023600123082902D1D0F8344114B10829FA
:1068C00004D006E0354C3449216005E0D0F834416D
:1068D00014B1082904D006E0314CFB21216005E009
:1068E000D0F8344114B1082908D00EE090F858428D
:1068F0002C48016864F30301016002E0D0F83441E0
:106900001CB929494FF40070086028480168C9077C
:1069100002D06FF0010101602548016841F4700167
:106920000160BFF34F8FBFF36F8F4FF01021D1F88D
:106930000002002803DBD1F80402002822DA1D4CF3
:1069400023601D480368002BFCD01223C1F80032DD
:106950000568002DFCD0C1F8043201680029FCD084
:10696000226001680029FCD0BFF34F8F10487C38AB
:106970000168124A01F4E06111430160BFF34F8FD7
:1069800000BFFDE70F490E48086030BD38050040E4
:106990000404001020C50040488103008C560040CC
:1069A00018F50040E40E004040960240000400400C
:1069B00088ED00E004E5014000E401400400FA0530
:1069C0000090D003BC2D0020014800680047000063
:1069D000F42C002010B5124C02202061606111A03F
:1069E000A06104F17800E0614FF4007020620020A3
:1069F000A06260620BA1A164E06204F51E71E16413
:106A00001021A065C4E91410E06509A1E01DFFF79D
:106A100001FD08A12046FFF7FDFC2020A07110BD5C
:106A20009C3C00205465726D696E616C0000000032
:106A30005254540053454747455200000269C1680B
:106A40008A4203D88068401A104400E0501A401E61
:106A500070472DE9F047C4681746894606464FF04F
:106A600000083069A04201D9051B02E0B168201A74
:106A70000D1AB0686D1E001BA84200D80546BD4225
:106A800000D33D4670682A4620444946FFF78AFCF9
:106A9000B0687F1B2C44A844A944A04200D1002424
:106AA000F460002FDDD14046BDE8F0872DE9F041CC
:106AB00004468846D4E90207C51BE16860681646AB
:106AC0000844B54206D94146FFF76CFCB819E060AE
:106AD000BDE8F0812A464146FFF764FC761B08EBCF
:106AE000050132466068FFF75DFCE660F0E70000F4
:106AF0000FB4054B10B503A9044A029800F02AF818
:106B000010BC5DF814FB0000F3830200582D002038
:106B100002E008C8121F08C1002AFAD17047704766
:106B2000002001E001C1121F002AFBD170470000C4
:106B30000121202803DA81400548014003E0402874
:106B400002DA2038814009B10120704700207047E7
:106B5000FC06FFBD2DE9FF4F89B09B46044600258A
:106B600006E025280BD05A460B999047641C6D1CF3
:106B700020780028F5D10DB02846BDE8F08F002719
:106B8000B8460122474900E0074314F8013F203B83
:106B900002FA03F00842F7D120782E2819D114F810
:106BA000010F47F004072A280ED06FF02F0220783B
:106BB000A0F1300109290CD808EB880102EB410152
:106BC00000EB0108641CF2E70A98641C50F8048B7F
:106BD0000A9020780028CED0642808D0692806D0F2
:106BE00075281ED05A460B9990476D1C58E00A999B
:106BF0004FF00A0901C90A91002802DA40422D210A
:106C000002E0390504D52B218DF82010012103E085
:106C1000F90704D02021F7E78A4608AE0DE00021ED
:106C2000FAE70A994FF00A0901C90A91F7E74946BC
:106C3000FFF7F9FB303106F8011D0028F7D1ADEB65
:106C4000060000F12009780701D44FF00108C8457B
:106C500002DDA8EB090000E000208046002706E0E6
:106C600008A85A46C05D0B9990476D1C7F1C57457C
:106C7000F6DB04E030205A460B9990476D1CB8F1C2
:106C80000001A8F10108F5DC05E016F8010B5A46F1
:106C90000B9990476D1CB9F10001A9F10109F4DCD1
:106CA000641C65E70928010010B5012202210020BB
:106CB00000F03CFF08B1072810D107220221012073
:106CC00000F034FF08B1072808D100210A22084645
:106CD00000F02CFF08B1072800D1002010BD0220D1
:106CE00000F038BE70B50024064D06E0686801214A
:106CF00010F8340003F048FB641C28788442F5D374
:106D0000002070BD002D0020F8B515460C46064643
:106D1000052A01D20720F8BD03F02EFC18B903F0B4
:106D2000F1FB0028F7D1124900224E600C708D60F3
:106D3000C1E90422C1E906220E4D0DE006EBC400B4
:106D40002968009181788DF8011000780A4A694617
:106D500003F066FB0028DED1641EE4B2EED2BDE88B
:106D6000F84004480021054A001D00F07FB80000EB
:106D7000002D00203CBD0200C1840200B981020048
:106D800072B602F03DFF00BF02F072FD0028FBD199
:106D900011481249401AC408012000EB044010A118
:106DA00002F080FE11480068C00700D000BE02203B
:106DB00000EB04400EA102F075FEBFF34F8F0B48AD
:106DC000E43801680E4A01F4E06111430160BFF349
:106DD0004F8F00BFFDE70000D4C802007CC802004E
:106DE000466174616C206572726F7200F0ED00E0B4
:106DF00053797374656D20726573657400000000CB
:106E00000400FA050EB500210091CDE901106A4693
:106E100044F20100FFF7B4FF0EBD10B58268C368ED
:106E2000934203D001F0D2FA002010BD052010BD1E
:106E300029B112B1531E134203D0092070470E200E
:106E400070470160838000218160C16008467047FF
:106E500010B58268C3689A1A83889A4203D801F0F1
:106E6000BFFA002010BD042010BD0000074B9B7826
:106E700023B12AB120B10068037C1BB10820704700
:106E80000720704741744261002070479C35002004
:106E900070B504F0E9F8104800240B210470447028
:106EA0000E4D817014206C602C706C70FFF7FAFB33
:106EB00006211420FFF717FC1420FFF7FEFB0848FB
:106EC000046006211120FFF70EFC0548001F006832
:106ED000A860002070BD00009C350020202D0020FF
:106EE000081501402DE9FC47DFF8789099F8023049
:106EF00073B368B3052902D20720BDE8FC87436954
:106F000033B3437C012B25D0002704460025884657
:106F100016468DF80050684600F0CEF801A804F03F
:106F200041FEC8B1012101700F4944600968C0E900
:106F30000218C0E904769DF8040089F801009DF864
:106F4000000000F0DDF81420FFF7C2FB2846D4E76C
:106F50000820D2E70F46D8E704259DF8000000F08E
:106F6000CFF8F3E79C3500200415014006498978E5
:106F700039B130B1416921B100210174022104F01D
:106F800039BB0820704700009C35002070B50A4EC0
:106F900001460A48B578FFF740FF04464DB100208E
:106FA000B070711C0122C81D02F040F908B1FFF752
:106FB00029FF204670BD0000342D0020A836002097
:106FC000F0B5244E89B01F460D00044672603FD0D4
:106FD000A888296882B22048FFF72AFF002835D107
:106FE000A889A96882B21C481030FFF721FF002849
:106FF0002CD1202219496846FFF7D4F96069069020
:10700000207C00B101208DF814008DF81C70607C8C
:1070100000B10E208DF81500E0680290A068039082
:1070200020680190606800900A480D4A694608305F
:1070300002F0C8F8002809D1B0702068401C05D0C3
:1070400004490122491CC81D02F0F0F809B0F0BD46
:107050000720FBE7342D0020A836002058BD020091
:10706000D5B7020010B501461048FFF7F1FE040045
:1070700019D10F480F4A0178515C19B1001D03F076
:10708000FDFC02E00C3003F0E1FB60B90849074861
:107090000839FFF7C2FE30B9054901220839044812
:1070A00002F0D4F80446204610BD0000B836002097
:1070B0003C2D0020D82C002030B5EFF3108172B6A3
:1070C0000D4A9468012324B10370002900D162B6EF
:1070D00030BD93604FF0E023D3F88051074C25403A
:1070E0001560C3F88041D3F8844154605A17C3F83F
:1070F000842100220270E8E7C8360020FC06FFBDAC
:107100000B498A68002A11D000280FD1EFF31080B4
:1071100072B60B684FF0E022C2F800314B68C2F83B
:10712000043100228A60002800D162B67047000056
:10713000C836002070B5054608680C46411C04D0CE
:1071400002F07FFA206802F00DFA6068411C02D05C
:10715000002102F0F5F92968A069C1F82405607DD5
:10716000227D29681043C1F86C05D4E90012286813
:10717000C0F81425C0F80C15207D012814D1A06892
:10718000411C02D0002102F0DBF9E068411C04D070
:1071900002F057FAE06802F0E5F9D4E90212286833
:1071A000C0F80825C0F8101570BD70B50546086810
:1071B0000C46411C04D002F04EFA206802F0DCF9C3
:1071C0006068411C02D0002102F0C3F92968A0695F
:1071D000C1F82405607D217D2A680843C2F86C054A
:1071E000D4E900122868C0F80C15C0F81425207DD9
:1071F000012814D1A068411C02D0002102F0A9F995
:10720000E068411C04D002F026FAE06802F0B4F90C
:10721000D4E902122868C0F80825C0F8101570BD1E
:1072200070B588B182B10024158803E0065D641C46
:107230003444A4B2A54203D8061976789E4201D000
:107240008C42F3D38C4201D3002070BDA11C11806D
:10725000005D401E80B270BD2DE9F0418AB0064647
:107260000020ADF814001346102088468DF8040065
:107270000D4606AA01A9184664DFA6B398BB9DF87F
:107280000400022804D0042807D0102839D10DE0CA
:1072900003208DF81000022003E005208DF8100077
:1072A00004208DF81100002404AF0FE007208DF8B2
:1072B00010000620F5E73B5D05AA41463046FFF782
:1072C000AFFF641CE4B20546022C04D2BDF81400E2
:1072D0000028F0D003E0BDF81400002812D080B2DE
:1072E000064400240BE00CE030199DF8042006A9A8
:1072F000FFF783F848B19DF80400204484B2AC4203
:10730000F2D300200AB0BDE8F0810120FAE70000C6
:1073100070B540B10C4D297839B1044603F088FEB0
:1073200028B1002070BD0E2070BD082070BDE86837
:10733000062807D20549226801EB8001401C0A603B
:10734000E860EEE7042070BDC82C002094310020D6
:1073500040B1054900220123CA600B70C1E9010256
:10736000104670470E207047C82C002070B50400EE
:107370002DD000292BD020480078002827D0208845
:107380000D46112815D0302804D0322807D03328D4
:107390001ED109E0211D284603F048FD18E0211DFB
:1073A000284603F079FB13E0211D284603F070FC0A
:1073B0000EE0A088B5F8CA12884209D1002085F8ED
:1073C000C70285F8C8024FF6FF70A5F8CA0270BD63
:1073D00095F8C8020028FAD020883028F7D34F2823
:1073E000F5D8A088B5F8CA128842F0D12846BDE881
:1073F000704000F093BF0000C82C002048B1084A3C
:10740000137843B1D26832B190F8C7222AB1112063
:1074100070470E2070470820704700F07FBF0000C3
:10742000C82C002038B50288011D04461F2A47D009
:1074300016DC102A1ED02B482B4BC01AC008032381
:1074400003EB0040112A2DD0132A33D01B2A44D13C
:107450000979022941D1BDE8384024A102F022BBBC
:10746000212A31D03B2A39D0562A36D1A08813217F
:1074700076DF11E0A1880022244800F00FF908B15E
:10748000FFF7C0FC072000F073FB08B1FFF7BAFC60
:10749000A1881F48FFF7B2FF00281ED0BDE8384082
:1074A000FFF7B0BC0B790A8801B01AA1BDE83040E3
:1074B00002F003BB0023A0881A4685217FDFEBE79B
:1074C00031F8040B75DFE7E700200090A0886946DB
:1074D0008FDF002801D0FFF795FC38BDA08813216D
:1074E00076DFD9E7D4C802007CC80200436F6E6E15
:1074F000656374696F6E205265717565737420746D
:10750000696D6564206F75742E000000B430002032
:10751000E4290020446973636F6E6E65637465646B
:107520002E20636F6E6E5F68616E646C653A20300A
:107530007825782C20726561736F6E3A203078253B
:107540007800000010B51A4C0188606810290ED030
:1075500011292BD1401E606028D1FFF7A5FB002820
:1075600024D02168002921D0BDE810400847D0B9B7
:1075700000210122084600F0D9FA08B107280FD1EE
:1075800007220221012000F0D1FA08B1072807D113
:1075900004220221002000F0C9FA20B1072802D0FD
:1075A000216801B188476068401C606010BD000020
:1075B000C02C002070B506461B481C4A0D46801A98
:1075C000C0080978032202EB004459B1012922D0F6
:1075D000022928D1204616A102F064FABDE87040C5
:1075E00003F01CBE204616A102F05CFA698805F182
:1075F0000E02304600F052F808B1FFF703FC3046A7
:1076000000F040F908B1FFF7FDFB2046BDE87040EF
:1076100010A102F047BAA86842780178BDE870402E
:1076200018A0FFF765BA70BDD4C802007CC802007C
:10763000446973636F6E6E65637465642E00000049
:10764000446973636F7665727920636F6D706C65E2
:1076500074652E00436F6E6E656374656420746F8D
:10766000206465766963652077697468204E6F725F
:10767000646963205541525420536572766963658D
:107680002E000000526563656976696E672064614B
:1076900074613A25642C25640000000048B14180E3
:1076A0002AB15188C1801188818091880181002090
:1076B00070470E207047000030B5114B0D46040096
:1076C0000FCB85B08DE80F0018D0BDB121466846BC
:1076D00062DF002810D120788DF812000120ADF86B
:1076E00010004FF6FF7060802868E0600020A080E6
:1076F000208104A8FFF70CFE05B030BD0E20FBE78B
:1077000004BD020010B5024686B008002ED0002A43
:107710002CD041884FF6FF73994202D09488A14241
:1077200024D11488112C14D0392C1FD18188002920
:107730001CD053898B4219D1C168002916D0012170
:107740008DF8001002F110010291917B8DF80C1060
:1077500009E092888A4209D1C168002906D0022135
:107760008DF800104380C2686946904706B010BD8E
:1077700030B585B00C46054614216846FEF72BFE51
:10778000207804F10E01002830D1A08801282DD1E5
:10779000A0792A78904229D1002217E002EBC2009A
:1077A00031F81030022B02D0032B0ED105E001EB93
:1077B00040000089ADF8120007E001EB40000389AA
:1077C000ADF80E304089ADF81000521C207A90427E
:1077D000E4D8E868002809D06088ADF802000020ED
:1077E0008DF80000EA6869462846904705B030BD2C
:1077F0003EB503000DD01448144C001BC0080224F1
:1078000004EB0040F42A06D911A102F04BF907203D
:107810003EBD0E203EBD5C88A4F57F45FF3D0DD0EA
:10782000104831C88DE8310018890291ADF8020086
:10783000ADF8062058886946A3DF3EBD0AA102F0D4
:1078400031F908203EBD000094C802007CC8020047
:10785000436F6E74656E7420746F6F206C6F6E670B
:107860002E00000020BD0200436F6E6E65637469D8
:107870006F6E2068616E646C6520696E76616C69FC
:10788000642E00001FB5010019D04888A0F57F4282
:10789000FF3A16D0C988A1B101228DF80C200A4BFD
:1078A00000228DF80D20D3E90423CDE90023ADF8A3
:1078B000021003A902916946A3DF04B010BD0E2097
:1078C000FBE70820F9E7000004BD02000149085C5D
:1078D0007047000040BC0200084908B5085C0090F1
:1078E000684601F06BFED0F810050099C84010F012
:1078F000010000D0012080F0010008BD40BC020062
:107900002DE9FC410646C0074FF000050ED0104F90
:1079100000240122385D009500231146019501F0F5
:10792000ABFD641C042CF4D300F04EF8B0070DD569
:10793000074E0024361D0022305D032300951146BA
:10794000019501F099FD641C042CF4D3BDE8FC8181
:107950003CBC0200094908B5085C0090684601F08B
:107960002DFED0F80425009B0121994021EA020355
:10797000C0F808351140C0F80C1508BD3CBC020029
:107980000249085C012101F070BE00003CBC02000D
:107990000249085C002101F068BE00003CBC020006
:1079A000084908B5085C0090684601F007FED0F869
:1079B00004050099C84010F0010000D0012080F0BB
:1079C000010008BD3CBC020010B500242046FFF7B2
:1079D000D7FF641C042CF9D310BD10B50024204639
:1079E000FFF7D6FF641C042CF9D310BD10B5024676
:1079F000064B4FF0FF3000215C5C944201D10846F9
:107A000010BD491C0429F7D310BD000040BC020082
:107A100070B50C4E0C004FF0000530600BD001200B
:107A200000F06AF808B1022004E0002000F064F8D9
:107A300000B10B202070706810B9FFF735F90546CA
:107A4000284670BDC02C002010B5002000F0CAF9F7
:107A500008B1062806D1012000F0C4F908B10628B3
:107A600000D1002010BD00002DE9F0470D468146F1
:107A7000FFF7BCFF0446042836D2DFF874801B48A9
:107A80001C4EA8F10C0725B3012D0ED0022D2BD1D1
:107A900004EB440030444578002D25D0B968002916
:107AA00022D02846BDE8F047084704EB4401755C46
:107AB0000E44717849B10E4A4FF40041093A80688A
:107AC000FFF710FA08B987F80390B17808F80410A6
:107AD000E2E78068FFF74AFA04EB4401314418F802
:107AE00004008D78A842D7D0BDE8F08744BC0200DE
:107AF000BC2C002068310020042801D2FFF7ECBE26
:107B000000207047042804D00A280CD1002002F07D
:107B10008DB905481321408876DF082803D0002856
:107B200001D0FFF76FB97047B430002070B5002363
:107B3000042810D20D4D00EB4004012A02D1012986
:107B40000CD00022094E00EB4000304461B1012905
:107B500006D0022906D00723184670BD0E30C2B2E7
:107B60002A55F9E74270F7E78270F5E7683100209F
:107B7000044A014600201279D20702D0084600F0DC
:107B80004DB87047B02C002070B506461E48002442
:107B9000C0E90161B00720D5002501221146284621
:107BA000FFF7C4FF6D1C0446042D02D2002CF4D054
:107BB00013E094B940F2666204211448FFF7A4F878
:107BC00004000AD1FFF78EF8040006D10F48104ACE
:107BD0000021001FFFF74AF90446F00712D00120E8
:107BE000FFF78EFE74B909480A4A00210C38FFF7E6
:107BF0003DF9040006D10548074A01210838FFF77E
:107C000035F90446204670BDB02C002050BC02005F
:107C1000B17E020035870200DF6C02002DE9F05FC3
:107C20006E4C054600266078B34618B184F801B062
:107C300000F068FD6A4F4FF47A694FF4C87A4FF04C
:107C40000108182D69D2DFE805F00C1313384754EA
:107C5000696E727B727BC58484848484B3B6B9BC3C
:107C6000C5C500F04FFD3868FFF780F906465CE0B7
:107C70000020FFF795FE00284FF0000008D0FFF726
:107C80007FFE022D02D14FF4E16008E0484606E095
:107C9000FFF77EFE022D01D1C82000E05046410CC6
:107CA000C0034FF4FA72801841F1000125705200B0
:107CB0000023FEF733FB01462AE00020FFF770FEA9
:107CC00000284FF0000004D0FFF75AFE4FF4487030
:107CD000E5E7FFF75DFEDFE70020FFF761FE002824
:107CE0004FF0000002D0FFF74BFECFE7FFF750FE4A
:107CF000D4E70020FFF754FE00284FF0000002D028
:107D0000FFF73EFE01E0FFF743FE257041F69A11B2
:107D100000223868FFF7E6F8064646E00020FFF745
:107D200019FE257008E0002051E025703DE084F840
:107D300001800120FFF70EFE002240F6CD41E8E76A
:107D400084F801800120FFF705FE00224FF48041F6
:107D5000DFE77868FFF70AF90646D5F1110000D091
:107D60002EB10220FFF70CFE84F802B01DE00128BE
:107D700016D980B2C8214843C117C90341EA50410E
:107D8000C0034FF4FA72801841F100015200002341
:107D9000FEF7C4FA014600227868FFF7A3F806460A
:107DA0000220FFF7F5FD84F802803046BDE8F09F21
:107DB00000F0A8FCB9E700F0A5FCB4E700F0A2FCD5
:107DC00004E000F09FFC0020FFF7E2FD0120FFF738
:107DD000DFFDAAE7FFF701FEA7E70000B02C0020B7
:107DE00044BC0200012103F0F5BE00002DE9F84378
:107DF0000546861C00208DF8000090460F464FF087
:107E000001096846FFF758F91B4C20683860D4E92F
:107E10000001401AA16804F21C47081A0EE0012173
:107E2000384600F075FE00F017FD0146384600F0B8
:107E30006FFED4E90001401AA168081A401C86426E
:107E4000EDD8B8F1000F03D0052065F3891002E0EA
:107E5000062065F39F50A2682168114004EB810160
:107E6000C8602068304420609DF80000FFF748F9A2
:107E70004846BDE8F88300007838002030B48268B6
:107E80000468531C8360A154D0E901128A4202D3D2
:107E900030BC01F0F8B930BC70470000034803C89B
:107EA000814201D1012070470020704778380020BE
:107EB00000780221FFF7D8BD05494FF0FF320828AE
:107EC00041F8202002D3084480F858207047000071
:107ED000C0340020F0B54FF0FF3512B10023082662
:107EE00001E008230C260C4C05E000BF54F8237079
:107EF0007F1C04D05B1CB342F8D32846F0BD261883
:107F00005DB286F8305044F82310002AF5D1E1180C
:107F100081F85800F1E70000C0340020024908440D
:107F200090F9300070470000C034002008B50246C8
:107F300090F8C6020B4600EB8001C1EB801002EB0B
:107F4000400092F8C52242B1521ED2B202EBC201E9
:107F500000EB4102518A491C00E0C188ADF80010D5
:107F60000089ADF80200694618469DDF08BD000093
:107F700070B5084C050009D010342168002907D0DD
:107F800008682060496828468847F6E70834F4E71F
:107F900070BD0000AC340020054A012120B1012849
:107FA00005D19170FFF7E4BF51700020FAE77047E8
:107FB000AC3400202DE9F05F26484168F1B3DFF8CA
:107FC00098B00E688146DBF8004087688078E11B36
:107FD00021F07F45ED1CB0B9DFF880804FF4803090
:107FE000C8F84403C8F804031120FEF75BFB112016
:107FF000FEF763FB4FF0010AC8F800A02F2002F043
:10800000BBF989F802A0B54200D23546124BE819F7
:108010003C3320F07F401860DBF800105A46091B03
:1080200021F07F41001B20F07F40C91C81420FD905
:10803000106818602F2002F09FF900E004E0BDE80E
:10804000F05F1120FEF744BBBDE8F05F03F00CB811
:10805000BDE8F09F202D00200415014000100140D4
:1080600070B588B00646002005900690ADF8141053
:10807000ADF816100190029001AA05A9304690DFD4
:10808000050021D002F01CF903461148114932467F
:10809000401AC108012000EB014004460E4901F0DE
:1080A0000CFDBDF8042012B9BDF8060028B1BDF8DA
:1080B0000630204609A101F000FDBDF808201AB1E4
:1080C0002046164901F0F2FC08B0284670BD0000B9
:1080D00084C802007CC80200E4C002005468652025
:1080E0007265717565737465642054582F525820F9
:1080F0007061636B6574206C656E6774682069736A
:1081000020746F6F206C6F6E672062792025752F49
:108110002575206F63746574732E000030C10200F2
:1081200001460148FFF724BBB43000202DE9F84395
:10813000054690F8C6020F4600EB8001C1EB8010A7
:1081400005EB400695F8C542914604EBC40006EBEA
:1081500040013279601C0A31904226D16B460022E0
:10816000284600F09DFA18B310E0401EA04201D14D
:10817000002004E004EBC40006EB40001C30804605
:1081800002466B46284600F08BFA30B1002038706A
:10819000694648469EDFBDE8F88395F8C50241462A
:1081A000401C641C85F8C502E4B23079A042DCD8DA
:1081B000012038700020EEE72DE9F0470025DFF8B8
:1081C0008C803CE06068002100EBC506012032781D
:1081D0009146FEF7D4F8D4E9062300EA020701EA43
:1081E000030C57EA0C0728D082438B434846C4E966
:1081F000062302F07FF93278824691460120002161
:10820000FEF7BDF8D4E9042300EA020401EA0307FB
:108210004A4650460021FEF7B2F844404F403C43E6
:108220000BD17078012801D0012100E00021726893
:1082300081EA0A010AB1484690476D1CEDB298F8F0
:10824000000044468542BDD3BDE8F087002D0020E4
:108250002DE9F047894690F8C612904601EB81025D
:10826000C2EB811100EB4107384602F0E1FE060047
:108270002FD0194CA06806282BD2184D762205EB7A
:10828000C0103946A0F80280001DFEF78BF80027C9
:10829000B9F1000F04D0A06805EBC010077004E02E
:1082A000A168022005EBC1110870A06805EBC011A0
:1082B000401CCE67A060E16888420AD1002604E035
:1082C00005EBC610C16F8847761CE0688642F7D37D
:1082D000A760BDE8F0870000C82C0020AC3100206A
:1082E00070B50E4690F8C612154601EB8102C2EB3E
:1082F0008111A0B000EB410002F09AFE040009D009
:108300007C2205496846FEF74DF8ADF802506846F4
:108310000196A04720B070BD70BC020070B50E463B
:1083200004464FF43371FEF756F811480025A4F8BF
:10833000CA62856084F8C9520E4884F8C65284F82F
:10834000C552006820602246012130469BDF012192
:10835000112806D0002809D184F8C71284F8C85221
:1083600003E084F8C71284F8C812002070BD000032
:10837000C82C00209431002010B50021024800F0E4
:10838000D2FB80F3100010BD943C00200E4910B5C4
:108390000A784C780023A24212D0521CD2B20A7042
:1083A000022A00D10B70084A0B780C3252F82320B5
:1083B00002608868104420F07F408860012010BD72
:1083C0000360002010BD0000202D002082688388FB
:1083D0001A4003689A5C0A708168491C8160704782
:1083E000C26883881A4003689954C168491CC160F7
:1083F000704710B50446C0B2FEF734FE204610BDEB
:1084000070B508880D46A0F52061773916D10C4863
:108410000C49401AC108032000EB01440AA1204680
:1084200001F040FBA88810A1C01E82B20D4813467F
:1084300002802046BDE8704001F03FBB70BD0000E7
:10844000D4C802007CC80200415454204D54552029
:1084500065786368616E676520636F6D706C6574C5
:1084600065642E00E0290020426C65204E555320A3
:108470006D61782064617461206C656E677468203A
:1084800073657420746F203078255828256429007E
:1084900010B50949094800F0C7FB08B1FEF7B2FC66
:1084A000F721064800F0B4FB002803D0BDE81040D7
:1084B000FEF7A8BC10BD000001840200C4300020FB
:1084C0002DE9F0418046024601200021FDF757FFCB
:1084D0001A4F05460E467868FEF748FD00280CD175
:1084E000174CD4E9062110462A4001EA06031A4334
:1084F00005D0A843B143C4E90601BDE8F081404678
:1085000001F0F8FF30B1D4E9040128433143C4E954
:10851000040105E0D4E90410A943B043C4E9041000
:10852000D4E9060128433143C4E90601A16878680B
:10853000BDE8F0410022FEF7D5BC00003CBD0200C2
:10854000002D00202DE9FC5F0E008346DDE90C477D
:10855000C6F1000098469246814600D4084601259F
:1085600003E000BF90FBFAF06D1C5045FADAA84515
:1085700000D9454624B1002E01DB780700D5641EE2
:10858000B80702D5B8F1000F0AD0F80708D13CB1FE
:10859000A54205D220215846641EFFF76FFCF6E77E
:1085A000002E02DA4E462D2102E0780703D52B215A
:1085B0005846FFF763FC07F0030002280BD1B8F11F
:1085C000000F08D13CB1A54205D230215846641EA7
:1085D000FFF754FCF6E7CDE90047434652463146E3
:1085E000584603F085FABDE8FC9F000070B50D46C3
:1085F000044600684FF4887101F082FE4FF49071D8
:10860000206801F07DFE4FF49271206801F078FE41
:108610004FF4A271206801F073FE20681249C0F87F
:1086200004132068690740F30730090E002806DAB2
:1086300000F00F0000F1E02080F8141D03E000F1CD
:10864000E02080F800142068012140F3073000F09A
:108650001F0291404009800000F1E020C0F8801224
:10866000C0F8001170BD0000100302000246002097
:108670001268530713D502F00300012802D0022824
:108680000CD105E0C2F383100B68801C184404E091
:108690000223086803EB92521044086001207047DF
:1086A00010B509892AB1D088491C814218D100200F
:1086B00010BD90F8C62202EB8204C4EB821200EBDC
:1086C000420212899142F2D0491C198090F8C612D8
:1086D00001EB8102C2EB811100EB4100008902E055
:1086E0001980D088401E5880012010BD007DC0F345
:1086F000C100012803D0032801D0002070470120C9
:10870000704700000A4810B5807860B1002401E08D
:10871000022C06D02046FFF733F9641C042CF7D353
:1087200010BD0324F6E7BDE81040FFF74DB9000087
:10873000B02C002003480179C90702D00078FFF768
:108740006DBA7047B02C0020F721018017214180BD
:10875000002101714171FB2181711B21C1717047A1
:108760002DE9F047394E002780463D46DFF8E0907E
:10877000D6F804A057E003D00446D0F81C8035E0BA
:1087800099F8002002EB4201521CD2B289F8002075
:1087900009EBC10199F80230091D9A4201D189F80B
:1087A000005048680A780446012A12D0022A02D0F2
:1087B000032A3BD108E002F0EDFE00B10127257449
:1087C00034E00574C06900E070680028F9D1706079
:1087D0002CE0207C50BB88686060C868A060086995
:1087E000E0604869A061F07800B165606268B168D6
:1087F000184B501A20F07F40984202D2A1680844DA
:1088000006E0881AA16820F07F40814202D9081A48
:10881000206000E0256065600120A560207420468E
:10882000E56102F099FEB8F10000A4D199F80010BA
:1088300099F801008142A3D117B97168514502D05E
:108840000120BDE8F0870020FBE70000202D00207C
:108850009C350020FFFF7F002DE9FF4100262348C3
:1088600000F053F92148001F074600F04EF9204C54
:1088700060680090A56800E000986946284004EB15
:1088800080000C30FFF7F2FE0028F5D101AA009914
:1088900001EA050304EB8303491CDB6842F820303E
:1088A000401C00910228F2D3019800F00300012837
:1088B0000BD0022810D10198032101EB90500099B0
:1088C000BDF80A6001EB900005E00198BDF80A6070
:1088D000C0F3831008440090384600F013F908B143
:1088E0000098606004B03046BDE8F081903C002004
:1088F000783800208AB04FF40041002001F04AF996
:1089000008B1FEF77FFA00F0A5FFFEF7C1FA08B143
:10891000FEF778FA182233496846FDF743FD3248DE
:10892000069032494FF48070CDE907010990072382
:108930002F4A06A96846FEF743FB08B1FEF762FA24
:108940002C490120FFF720F908B1FEF75BFA6946D0
:108950000020FFF75DF808B1FEF754FA2648FEF74D
:10896000F7FC08B1FEF74EFA01F02AFA08B1FEF75B
:1089700049FA01F0F1FB08B1FEF744FA002000903B
:108980006946012001F088FA08B1FEF73BFA684613
:1089900001F01AFB08B1FEF735FAFFF779FD174829
:1089A000009069461648FEF787FE08B1FEF72AFADE
:1089B00002F008FC13A0FEF79BF81B481B49401A65
:1089C000C008032101EB004019A101F06BF802F08F
:1089D00025FC00BF00F04CFF0028FBD101F004FA99
:1089E000F8E7000024BC0200B42E0020B42F0020C1
:1089F000EDB60200057B020021810200B575020080
:108A0000B4300020424C4520554152542063656EDD
:108A10007472616C206578616D706C65207374612F
:108A2000727465642E0D0A00D4C802007CC802006E
:108A3000424C4520554152542063656E7472616CFE
:108A4000206578616D706C65207374617274656403
:108A50002E0000002DE9F047C5881E1DB6FBF5F776
:108A60008946B6FBF5F1044605FB176C407916689C
:108A70006843DDF820A0F718001F874200D9C61A06
:108A8000166001E02468491E0029FBD1A5EB0C0704
:108A90008846B74216D818E004EB0C00001D09EB1D
:108AA0000803BAF1000F3A4602D00146184600E02A
:108AB0001946FDF777FC2468F61B4FF0000CB8440C
:108AC000B54201D9374600E02F46002EE4D1BDE87B
:108AD000F087000030B5024651B101F079F800216D
:108AE000074C08E034F821301568AB4202D1116020
:108AF000002030BD491C8142F4D3052030BD000068
:108B000000000000002100F009B8012100F010B8B9
:108B100008B56A46FDF7B1FB009808BD08B56A467E
:108B2000FDF791FB08BD08B56A46FDF773FB08BD6C
:108B300008B56A46FDF77AFB009808BD08B56A4695
:108B4000FDF7A8FB009808BD38B5044600258DF850
:108B500000506846FEF7B0FA2168626808689042E3
:108B60000ED9401E08600178238AE26801FB0325C4
:108B7000227A2168101AC0B20A79824200D20871A2
:108B80009DF80000FEF7BCFA284638BD38B505460A
:108B900000208DF800000C466846FEF78DFAE86864
:108BA000298A201AB0FBF1F12A681068431C13606F
:108BB00001709DF80000FEF7A3FA38BD10B530B182
:108BC000017A42680368891AC9B21A6006E00E2069
:108BD00010BD03681A68541C1C601170491EC9B28C
:108BE000F7D2006800210171084610BDC20800F0EC
:108BF00007030120895C98400840704710B5C208FF
:108C000000F00703885C01249C402043885410BD79
:108C100028B1A1F11702E12A03D3072070470E20E3
:108C2000704741800020704710B560B10161F721A5
:108C300020F8021B20F8021BFB2100F8021BFFF7A3
:108C400083FD002010BD0E2010BD0000F0B585880A
:108C500093B00C46002D39D1018800263F4F2429BE
:108C60003BD006DC102909D011290CD0232958D17A
:108C70004FE03A290BD0552953D129E0014620462F
:108C800001F0B2FF4DE0A01DFFF75EFD49E0224676
:108C9000408934F8061F814200D8084660801728B2
:108CA00000D217206080106970B1607960B1D7E997
:108CB0000001CDE90301ADF80E506088ADF8100059
:108CC000136903A9104698476671267113B0F0BD69
:108CD0000146204602F054F823E0011D2C2206A88C
:108CE000FDF760FBBDF81800BDF81C2004EBC001C7
:108CF0004A732269AAB1D7E90423CDE90423ADF868
:108D00001200487B8DF814002269204604A9904780
:108D100007E0017A207B884200D201462846FFF70F
:108D20009FF9A07A0028D1D0E1882846A5DF012547
:108D300080B11128CAD001F0C3FA02460848094997
:108D400013B0401AC00805EB0040BDE8F04006A192
:108D500000F0ACBEA672E572B8E70000ECBC020001
:108D600084C802007CC8020073645F626C655F6740
:108D7000617474635F65786368616E67655F6D7465
:108D8000755F7265717565737428292072657475D5
:108D9000726E65642025732E000000002DE9F041FD
:108DA000044600F1140700F10A05867C007A86B0BB
:108DB00001F10208002814D08BDF14216846FDF76A
:108DC0000AFB33462A46394640468CDF06218DF899
:108DD00000100190002804D0616A002901D0684683
:108DE000884706B0BDE8F0814FF4C87101820621C2
:108DF0004181182181810021C1817047017DA0221C
:108E0000C2825022028321F018010022428341F0E5
:108E100004010175012141757047F0B520B11AB107
:108E2000032903D00720F0BD0E20F0BD04790346CE
:108E3000051D0CB10420F0BD00211688084633F84A
:108E40002170B742F7D0491C11F0FF01F7D003EBB6
:108E50008401641C2C7012680A60F0BD18B10021F6
:108E60004171084670470E20704710B50B4604004C
:108E700002D0980702D009E00E2010BD580705D493
:108E8000D80603D4180701D4072010BD2046FFF7E9
:108E9000E5FF580701D501206071A271002010BDC7
:108EA00070B50D46040010D0002626606660626230
:108EB000EDB128792072287BA074296839B10E227F
:108EC00004F11400FDF76EFA04E00E2070BD204698
:108ED000FFF794FFA86830B10168C4F80A10406831
:108EE000C4F80E0009E02046FFF77EFF05E0FFF71B
:108EF00085FF2046FFF778FF267204F12800A06462
:108F00001F20A4F84C00002070BD2DE9F04F04464E
:108F100089B0002088460746069014216846FDF770
:108F20005AFA04F1140004902046FFF7DFFB010019
:108F300004F14800059011D002208DF80000CDF812
:108F40000480616A68468847002005998ADF4146A7
:108F50002046FFF723FF09B0BDE8F08FA07900217C
:108F600007916179834621B301210691824694F8E5
:108F700004900026B8F81C003546089012E004EB77
:108F80008502D8F818000899FEF766F928B1761C12
:108F9000F6B2BAF1000F0DD002E0BAF1000F06D11F
:108FA0006D1CEDB24D45EAD3BAF1000F02D04E452B
:108FB00001D009E046B19DF8080040F004008DF8AA
:108FC000080001207F1C0790CDF80480BBF1000F42
:108FD00002D00698874203D0079830EA0B0007D0EA
:108FE00000208DF8000041462046FFF7D7FE02E042
:108FF00003208DF80000616A09B1684688470020A7
:1090000005998ADFA7E770B50D46014601F1080210
:109010000C1D28460988143586B0102935D01B2927
:109020001FD01D2917D0202942D106461421684699
:10903000241DFDF7D0F9706A002839D005208DF87D
:10904000000004952068019060680290207A8DF8F5
:109050000C00716A2AE006B01146BDE87040FFF7C7
:1090600054BF064614216846241DFDF7B4F9207844
:1090700001281DD1706A00281AD004208DF8000044
:10908000049520788DF80400E3E70646142168462D
:10909000FDF7A1F907208DF80000201D0190208820
:1090A000ADF808000495716A002901D06846884728
:1090B00006B070BD30B585B0040025D014216846D7
:1090C000FDF789F98BDF2046FFF710FB012528B15A
:1090D000616A19B18DF800506846884704F148016B
:1090E00004F114008ADF044608280FD074B1084840
:1090F00008492246401AC00805EB004006A100F0CE
:10910000D5FC204605B030BD0E20FBE70020F9E776
:109110008CC802007CC8020073645F626C655F6784
:1091200061705F7363616E5F7374617274207265E6
:109130007475726E656420307825780000F1804087
:109140000068002800D00120704708B500F1804079
:10915000002101600068009008BD000070B50B4C54
:10916000207808B185250FE00020A06060602061B4
:10917000E060074801F0E2F8054601F039F808B967
:1091800001F0C4F801202070284670BDAC340020E6
:10919000997F020038B500258DF800506846FDF72C
:1091A0008BFF074CE068401EE060E06810B901F0FA
:1091B000D5F8A5709DF80000FDF7A2FF38BD0000AE
:1091C000AC340020F0B505460478154889B0164641
:1091D00040F82420124A08690832A2F10C0742F82C
:1091E0002400487F385520226846FDF7DBF80494B8
:1091F0002878385C48B10EB10A4A00E0002269467E
:10920000281D01F03BFB09B0F0BD0EB1064A00E09D
:109210000022694605F10C0001F0E6F9F3E70000D1
:10922000DC2C0020CDB9020075B8020030B4037800
:10923000054CE35C1BB130BC001D01F055BB30BCDC
:109240000C3001F03BBA0000D82C002030B4037879
:10925000054CE35C1BB130BC001D01F0C7BB30BC4A
:109260000C3001F0A1BA0000D82C00200FB408B5D2
:109270000399002904D004AA00926A4600F00FF86E
:1092800001B05DF814FB10B582680446002A05D0D1
:10929000D4E90403216898470020A06010BD2DE99F
:1092A000FC4791460C00804676D014F8011B39B17A
:1092B00025290ED04046FEF7E1FD20780028F4D1A4
:1092C00098F80C00002867D04046BDE8FC47FFF73F
:1092D000DABF0020012221782B291BD02D2902D0B2
:1092E000302908D102E040F0010001E040F0020026
:1092F000641C002AEFD100252A290ED02178A1F183
:1093000030020A2A11D205EB850201EB4205641CEA
:10931000303DF1E740F00400EAE7D9F800100B1DFA
:10932000C9F800300968641C0D44217800232E29F7
:109330000BD114F8011FA1F130020A2A05D203EB68
:10934000830201EB4203303BF3E76C290DD068291F
:109350000BD0692921D00BDC252918D0582931D010
:1093600063290ED0642915D117E014F8011FECE72A
:10937000702969D0732932D075291BD0782909D179
:1093800020E0D9F80000011DC9F80010017840461E
:10939000FEF774FD641C90E76CE0D9F800100A1D1C
:1093A000C9F800200968CDE900500A224046FFF7BD
:1093B000C9F8EFE7D9F800100A1DC9F800200968BC
:1093C0000A2206E0D9F800100A1DC9F80020096831
:1093D0001022CDE90050404602F08AFBDAE7D9F8C6
:1093E000001000270A1DC9F800200E68C00705D12B
:1093F00012E04046761C7F1CFEF740FD31780029C4
:10940000F7D104E0202140466D1EFEF737FDBD4236
:10941000C0D9002DF6D1BDE74EB13046FCF7E6FFCE
:10942000074604E0202140466D1EFEF727FDBD42A1
:1094300006D9002DF6D103E04046761CFEF71EFD4E
:1094400031780029F8D1A5E7D9F80000011DC9F845
:109450000010056830214046FEF710FD7821404697
:10946000FEF70CFD08200021CDE900010346102283
:109470002946B0E7BDE8FC872DE9FF411C46DDE940
:109480000A7815460E46684600F098F846EA450107
:1094900041EA840141EA072242EA0841009A00EBCE
:1094A0008200C0F80017BDE8FF812DE9FF411C468E
:1094B000DDE90A7815460E46684600F08DF846EA62
:1094C000450141EA840141EA072242EA0841009A43
:1094D00000EB8200C0F80017BDE8FF812DE9FF41D5
:1094E0001C46DDE90A7815460E46684600F082F80B
:1094F00046EA450141EA840141EA072242EA08417D
:10950000009A00EB8200C0F80017BDE8FF812DE94A
:10951000FF411C46DDE90A7815460E46684600F014
:1095200077F846EA450141EA840141EA072242EA26
:109530000841009A00EB8200C0F80017BDE8FF81E7
:109540001CB500220B46009211460192FFF7C6FFA0
:109550001CBD1CB500220B46009211460192FFF77C
:10956000D6FF1CBD1CB5002100910B4601220191C4
:109570001146FFF7B3FF1CBD1CB5002100910B463F
:10958000012201911146FFF7C2FF1CBD13B50C4625
:10959000684600F021F8009900EB8101D1F800271E
:1095A00022F44032C1F80027009900EB8100D0F886
:1095B000001741EA0441C0F800171CBD01682029CA
:1095C00002D24FF0A040704701F01F010160014836
:1095D00070470000000300500168202902D24FF0BC
:1095E000A040704701F01F01016001487047000072
:1095F000000300500168202902D24FF0A0407047BC
:1096000001F01F0101600148704700000003005095
:109610000168202902D24FF0A040704701F01F01DD
:1096200001600148704700000003005001B5684622
:10963000FFF7D2FFD0F810050099C84000F00100F4
:1096400008BD01B56846FFF7D5FF009A012191409A
:10965000C0F8081508BD01B56846FFF7D9FF009AA4
:1096600001219140C0F8081508BD38B501240090CB
:10967000684631B1FFF7A2FF00998C40C0F8084559
:1096800038BDFFF79BFF00998C40C0F80C4538BDF2
:109690001CB5094C0144D4E90034CDE900346C46D2
:1096A00006E000BF54F82030D3F81035401C08C243
:1096B0008142F7D81CBD00002CBD0200034908B54B
:1096C0000844002101600068009008BD006000406F
:1096D00002494058012800D0002070470060004037
:1096E00030B5154A01460020D2F8104423460AE05E
:1096F000DB681D79854205D1401C0A28F6DB4FF056
:10970000FF3030BD1B68002BF2D1431CF9D0CB6871
:109710001871D2F8103443B1DB68CC681B68236041
:10972000D2F81024D268116030BDC2F81014C96894
:1097300000220A6030BD0000783800207047FDF735
:1097400021B8704708B5034A00924023024A00F04E
:1097500005F808BDF1B20200E0360020F0B595B082
:109760001C4615460F4608461A9E00F003FB1821BA
:1097700009A8FCF730FE0E96CDE909540023082213
:1097800003A9384600F00BFB05980690BDF81000C1
:10979000ADF81C00BDF81200ADF81E0000208DF8D9
:1097A00021000398082600F00300012802D00228B7
:1097B00018D032E003983346850AC0F3C2008DF812
:1097C000200003980FA9C0F38314A200384600F0CC
:1097D000E6FA09A8009006AB22460FA9284600F039
:1097E00025FA1AE00398840DC0F3C2008DF820001A
:1097F000082C01D2254600E0082533462A460FA949
:10980000384600F0CCFA2E44641B09AB06AA294660
:109810000FA800F069F9002CEAD1384600F0B0FA40
:1098200015B0F0BD0A4A012902EBC00007D0022999
:1098300007D0032907D0042907D000207047022051
:1098400070470420704700797047407970470000E6
:109850007CC8020010B5FFF772FF04210348FFF730
:109860003FFF02490120C968487110BD6CC8020061
:109870002DE9F04F8DB0FEF711FB18B100200DB0AF
:10988000BDE8F08F7E4C4FF0000BC4F818B4BFF366
:109890004F8F60680290A568D846284004EB80008E
:1098A0000CE000BFD4F8180470B921680298814216
:1098B00001D86160E2E7284004EB80000C3002A987
:1098C000FEF7D4FE0028EDD1002005AA029901EA96
:1098D000050304EB8303491CDB6842F82030401C7D
:1098E00002910228F2D3059800F00300022802D06A
:1098F00001284DD0AAE005985022810D8946B2EB8F
:10990000905F00D850210E4666F39F5005900831B5
:109910005C4800F0E6F9070078D000F02BFA4346E7
:10992000082205A9384600F042FA029908F1080A0F
:109930002940681A8000001D864222D9504D0C35FE
:1099400030B1C2B204EB8101301A90460C3104E010
:109950002946F2B2002590462846C6B253463846FC
:1099600000F025FA0AEB080325B1324629463846AD
:1099700000F01DFA029909F1030001EB900002903A
:109980003BE004EB81015346324638460C31EFE7A9
:109990000598C0F38310062800D30620059960F3CC
:1099A0008911C1F38310801C05918100354800F0B6
:1099B00098F907004AD000F0DDF94346082205A9CE
:1099C000384600F0F4F908F1080800260FE0029884
:1099D000434600EA0501401C04EB81010290042289
:1099E00038460C3100F0E3F908F10408761C0598BC
:1099F000C0F38310B042EAD847B1D4F81054D4F879
:109A0000180478B1384600F0BBF934E01EE0E8688D
:109A10004079012804D12A682846394612689047BF
:109A2000E8680568002DF2D1384600F0A9F98DF8F4
:109A300000B06846FDF740FBD4F8180408B9029856
:109A400060609DF80000FDF75BFB14E0D4F8104463
:109A500005E02168204689688847E0680468002C92
:109A6000F7D109480949401AC008022101EB00401A
:109A700007A100F017F8FEF711FA80F00100FEE6EA
:109A800078380020F4C80200D4C802007CC8020064
:109A90004261636B656E647320666C7573686564A0
:109AA0000000000000231A4601F0D0BC08B50123D5
:109AB00000926A4601F0CAFC08BD1CB5CDE900233E
:109AC00002236A4601F0C2FC1CBDF0B587B00DF15F
:109AD000300C9CE8F0008DE8FC0006236A4601F09B
:109AE000B5FC07B0F0BD00002DE9F0470E468046FA
:109AF0001C46924608293ED894F80C90002020730A
:109B00001946104601F03CFA0025B54206D218F875
:109B100005201AA12046FFF7A9FB03E019A1204662
:109B2000FFF7A4FB6D1C082DEFD317A12046FFF70C
:109B30009DFB0025B54210D218F80570FCF72EFCED
:109B40000068C05D10F03E0F01D03A4600E02E22C2
:109B50000EA12046FFF78AFB03E00DA12046FFF788
:109B600085FB6D1C082DE5D301222146504601F0EE
:109B7000E9F984F80C90BDE8F08700002025303228
:109B800078000000202020007C00000025630000F9
:109B9000200000000B4810B5FF218160002101600A
:109BA0004160C0F81814C0F8141480F82014064856
:109BB00000F0E4F8002803D1044800F055F9002033
:109BC00010BD000078380020F4C8020008BF020071
:109BD00002480349401AC00870470000F4C8020058
:109BE0007CC8020013B56846FEF774FF08B1002078
:109BF0001CBD0248009950F831001CBD7CC8020011
:109C000070B509480125D0F8104480F8205407E0C9
:109C1000E06845712168204649688847E068046823
:109C2000002CF5D170BD0000783800202DE9FF47E9
:109C300081460C9D00200C462F7B287398461646C3
:109C40002946184601F09CF9072E42D2DFE806F0BB
:109C500004090F161F2A360049462846FFF706FB5F
:109C600037E0494628462268FFF700FB31E0D4E997
:109C7000002349462846FFF7F9FA2AE0A068009039
:109C8000D4E9002349462846FFF7F0FA21E0D4E959
:109C90000201CDE90001D4E9002349462846FFF737
:109CA000E5FA16E004F1080007C88DE80700D4E9DA
:109CB000002349462846FFF7D9FA0AE004F10800D4
:109CC0000FC88DE80F00D4E9002349462846FFF766
:109CD000CDFA00222946404601F034F92F73BDE841
:109CE000FF872DE9F041058A80462D1F4819C01CC9
:109CF000B0FBF5F0C6B24046FEF726FF040019D0CF
:109D00000020207101206071E58000272546761E25
:109D1000C4F800800BE04046FEF716FF60B16179A1
:109D2000491C6171286005467F1CC0F80080B7425D
:109D3000F1D32046BDE8F081204600F002F8002073
:109D4000F8E72DE9F041457901466B1E002201E05C
:109D50000968521C9A42FBD30F680146002605E0B1
:109D600038460C68FEF712FF2146761CAE42F7D348
:109D7000BDE8F0810121001DFEF7CABEFEF71EBF3F
:109D800010B504460121001DFEF7D8FE10F0FF0FAC
:109D900004D12046BDE81040FFF7D3BF10BD1CB56D
:109DA00001920122009201AAFEF754FE1CBD1CB5CF
:109DB00001920022009201AAFEF74CFE1CBD000099
:109DC000064910B500204870091D0860BFF35F8F79
:109DD0000349044800F030FA002010BD502D002047
:109DE000A0BD0200D436002008B500208DF8000088
:109DF0006846FDF761F9F1EE100A20F09F00E1EEF0
:109E0000100ABFF35F8F08494020C1F880029DF817
:109E10000000FDF775F900F0EBF908B141DF08BD6E
:109E200020BF40BF20BF08BD04E000E070B504467D
:109E30000C480121FEF777FEBFF35F8F0025002855
:109E400009D10120074E042C08D0311F4A781AB1DD
:109E5000BFF35F8F356070BD0C70487001F080FA01
:109E6000F6E70000542D002082680021916082688E
:109E70001161826851618268D16082685160806836
:109E80000160704720B103490968016000207047F4
:109E90000E2070478CBF02002DE9FE4307460E4698
:109EA0000846FFF7EFFF00287CD1002500950195BB
:109EB00006208DF800704FF00108ADF804000295FF
:109EC0008DF8028069462020326869DF3649374ABA
:109ED000891AC908012202EB014430B100F0F0F9FF
:109EE000024620463249FFF7E1FD00958DF801500A
:109EF0008DF80280019502958DF803806946402017
:109F0000326869DF30B100F0DBF9024620462949AA
:109F1000FFF7CCFD00958DF80070F720ADF802003A
:109F20000195029569462320326869DF30B100F05F
:109F3000C7F9024620462049FFF7B8FD0095019574
:109F400002958DF8008069460120326869DF30B1E2
:109F500000F0B6F9024620461849FFF7A7FD4FF476
:109F6000B0600090019502956946A120326869DFD2
:109F700030B100F0A5F9024620461149FFF796FDE1
:109F80000095019502958DF800506946A020326831
:109F900069DF30B100F094F9024620460949FFF725
:109FA00085FD0020BDE8FE83E4C802007CC80200F5
:109FB000D0C6020018C7020064C7020030C6020003
:109FC0007CC60200DCC502002DE9F04105460768A9
:109FD00060DF804619491A482A68081AC608BA423A
:109FE00019D9022000EB064416A12046FFF75AFDBE
:109FF00020463A461FA12B68FFF75FFD4FF08050C7
:10A00000D0F80C012968800200F10050421A204665
:10A0100025A1FFF74BFD5FEA08004FF001040AD0CD
:10A0200000F04EF9024604EB06402AA1FFF73EFD80
:10A030004046BDE8F0812F480470F9E7E4C802000B
:10A040007CC80200496E73756666696369656E74E3
:10A050002052414D20616C6C6F63617465642066B1
:10A060006F722074686520536F6674446576696307
:10A07000652E00004368616E676520746865205234
:10A08000414D207374617274206C6F636174696FE9
:10A090006E2066726F6D203078257820746F2030C6
:10A0A0007825782E000000004D6178696D756D206F
:10A0B00052414D2073697A6520666F72206170701D
:10A0C0006C69636174696F6E2069732030782578DC
:10A0D0002E00000073645F626C655F656E61626C88
:10A0E0006528292072657475726E65642025732E4B
:10A0F00000000000BB2D002030B51548ADF5017DF6
:10A100000078002821D04FF4FA7500BFADF8005256
:10A1100080A9684661DF38B1052816D00DF5017DAC
:10A12000BDE83040FCF76EBE6C460A497DA800F0E1
:10A1300083F806E0D0E90021204690477DA800F092
:10A1400092F87F980028E1D0F4E70DF5017D30BD4D
:10A15000BB2D002090BF02007CB5194C207808B1BF
:10A1600008207CBD0120A070002001F093F8112888
:10A1700019D0002001F0A6F81248002600680190CE
:10A180008DF800606846FCF797FF0F4901A810DFC3
:10A1900005000AD0002020709DF80000FCF7B0FFF9
:10A1A0002DB128467CBD00207CBD0120F3E7A670C0
:10A1B000667001F01FF9012001F084F8F3E7000058
:10A1C000B82D002024BF0200816D02000EB50749A2
:10A1D000684600F031F805E0D0E90010884768468D
:10A1E00000F041F802980028F6D10EBD40BF0200F1
:10A1F0000148007870470000B82D00201FB5684660
:10A200004BDF30B1052814D004B0BDE81040FCF796
:10A21000F9BD084901A800F00FF806E0D0E90021D7
:10A220000098904701A800F01EF803980028E6D097
:10A23000F4E71FBDACBF0200016009684160AFF3E5
:10A24000008010B5D0E900215368994201D1002166
:10A2500004E0D1E90034A34202D01946816010BD68
:10A2600008314160F0E7816800290BD002689268EC
:10A270000A44826041684B689A4203D108314160C8
:10A28000FFF7DFBF704700000C4A10B502F594736A
:10A290000EE0991AC91001EBD171491002EBC1010E
:10A2A0000C68844201D90B4602E005D201F1080294
:10A2B0009A42EED3002010BD486810BDC0BD020018
:10A2C00000B5FFF7E1FF002800D1014800BD000004
:10A2D000ACBD02004058002800D00120704708B5EE
:10A2E000002242504058009008BDD0F804030840B6
:10A2F00000D0012070474058002800D0012070474E
:10A3000008B5002242504058009008BD0948006836
:10A31000012110F0010F08D14FF0E020C02280F899
:10A320000024C0F88012C0F8001103490120086021
:10A330007047000000E100E01805004006490246B1
:10A3400000200B790BB1852070470A6001220A7149
:10A3500000224A7170470000EC2C002004490120C3
:10A36000086004480168C1F300410029FAD1704730
:10A370000C00004018040040002802D00149800170
:10A380000847704751BD02002DE9F0410E46804656
:10A3900000F0C0FD204D0028404616D0FDF7BEFD60
:10A3A000284490F858008009032802D001280AD0D8
:10A3B00003E04046FFF73AF928B103214046BDE8E3
:10A3C000F041FFF7E3B80221F8E700F0AFFD002805
:10A3D00020D04046FDF7A2FD0446104F4FF4807098
:10A3E00007EB840100EB8400D1F8102580B242F025
:10A3F0000102C1F81025FFF761F9002E0AD040468E
:10A40000FDF78CFD55F82000002803D00120A04066
:10A41000C7F80403BDE8F081C034002000600040AC
:10A420002DE9FC41DFF8C080044608EB040000275A
:10A4300090F930001346C0170E46401C01D0082783
:10A440004FE0B0781946C0F340022046FDF742FDC8
:10A450000546401C44D0B07841071CD4C0070DD03D
:10A4600068460094FFF7B8F8009900EB8100D0F837
:10A47000001721F00201C0F8001707E000217378EF
:10A48000204600910A460191FFF70FF81649204631
:10A490006431FEF7B3FBB078800718D513483178E4
:10A4A00000EB8500D0F81025114B1A40C0F810259C
:10A4B0004FF47C524FF4403302EA042203EA014194
:10A4C0000A43D0F810150A43C0F8102509E008EB3C
:10A4D0000500327810F8581F41EA8211017000E03F
:10A4E00004273846BDE8FC81C034002000600040ED
:10A4F000FFC0FCFF10B5FFF799F8002800D001203D
:10A5000010BD000070B5194D95F86A0008B108201B
:10A5100070BD0020411E2A18401CC0B282F83010C5
:10A520003028F8D300242046FDF7C6FC641CE4B2B2
:10A530000C2CF8D30D490024C0204C66A1F86840CB
:10A540000B4981F8000401264020891FC1F88002D0
:10A55000C1F800014FF4BE70FFF7B0F80549F007ED
:10A56000C1F8040385F86A60204670BDC03400203D
:10A5700006E000E000600040034890F86A00002810
:10A5800000D0012070470000C03400200121B1EB51
:10A59000507F01D1012070470020704738B50D462B
:10A5A00000F03AFD040014D000208DF80000684649
:10A5B000FCF782FD207928B19DF80000FCF7A0FD92
:10A5C000112038BD0120256020719DF80000FCF7A6
:10A5D00097FD002038BD00000149024801F062B932
:10A5E0002C350020002000402DE9F041054600797F
:10A5F00016460F4600EB40012D4A01EBC00102EB6D
:10A60000810494F82A1011B10820BDE8F08129498D
:10A6100051F820102868FFF7C1FF08B11120F4E7B6
:10A6200039462846FCF786FD6660386920603000B0
:10A630004FF001062FD03F7F4FF48E712868FFF74F
:10A640004EFE4FF4A2712868FFF749FE28681A49A8
:10A65000C0F8041328684FEA471140F30730002878
:10A6600006DA00F00F0000F1E02080F8141D03E08E
:10A6700000F1E02080F80014286840F3073000F073
:10A680001F0206FA02F14009800000F1E020C0F844
:10A690008012C0F8001128680421C0F800150020BD
:10A6A000A061E06184F8290044F8140FA675ACE7B6
:10A6B0002C35002034BD0200800002002DE9F05F3F
:10A6C000054600794FF4017600EB400303EBC00030
:10A6D000344B03EB80040020636813B12B68C3F88C
:10A6E0000863A3694FF000096BB1E06938B1606895
:10A6F00010B12868C0F804631120BDE8F09FE26142
:10A700000120216105E0C4F82490A261E160C4F851
:10A710001C9094F82910014302D1284600F0F2FC65
:10A7200060680028286803D0C0F804630020E4E7CC
:10A730004FF4A2763146FFF7D2FDB2464FF4927B3A
:10A7400059462868FFF7C6FD06464FF4847128680D
:10A75000FFF7C0FD804651462868FFF7BBFD07465E
:10A7600048EA07003043EBD056EA070007D12146FC
:10A77000286800F097FCA169606A8142E0D8C4F8BB
:10A7800018900EB10320B8E70FB10F20B5E794F889
:10A79000291001200029296801D00860C6E7486017
:10A7A000C4E700002C3500202DE9F047054600796C
:10A7B0000B4600EB400101EBC000234901EB800494
:10A7C000284600F043F810B11120BDE8F0874FF0A3
:10A7D0000008C4F82080A360626184F828804FF4E8
:10A7E0008E76474631462868FFF779FD28684FF096
:10A7F0000109C0F808902146286800F059FF6068F8
:10A8000000BBD5F800A00EE094F8280008B10F278F
:10A8100016E031465046FFF75DFD0028F4D0214692
:10A82000504600F045FF216A60698142F1D331460C
:10A830002868FFF74FFD0028F9D02868C0F80C9071
:10A84000C4F814803846C0E72C350020007900EBAE
:10A85000400101EBC000044901EB80004069002881
:10A8600000D00120704700002C350020014902482B
:10A8700001F0C4B858350020002000402DE9F04117
:10A880000546164600790F46154A00EBC00102EB5B
:10A89000810494F8201011B10820BDE8F08111491D
:10A8A00051F820102868FFF779FE08B11120F4E76D
:10A8B00039462846FCF779FC6660386920601EB18D
:10A8C000397F2846FDF792FE28680821C0F8001558
:10A8D0000020A061E0610121606184F82010DCE7C4
:10A8E0005835002038BD02002DE9F05F044600799C
:10A8F0000E4600EBC001DFF8F0A017460AEB810519
:10A900003046FFF743FEB0B168684FF000084FF4DF
:10A91000047910B12168C1F80893A8694FF0000BC1
:10A9200080B1E86948B1686810B12068C0F8049344
:10A930001120BDE8F09F1020FBE7EF614FF0010808
:10A940002E6102E0EE60C5E9067B00254FF48871B8
:10A950002068FFF7D5FC4FF4A2712068FFF7D0FC08
:10A960002068C0F83465C0F838752068B8F1000F69
:10A9700012D0D0F8001241F02001C0F80012207966
:10A98000D04600EBC0010AEB8100406838B1206876
:10A99000C0F804932846CCE701210160EFE74FF4AB
:10A9A000887A4FF4A27951462068FFF7A4FC074645
:10A9B00049462068FFF79FFC06464FF492712068D5
:10A9C000FFF799FC014647EA06000843EBD02279DD
:10A9D00002EBC20308EB8302C2F818B001B10325F1
:10A9E000002ED7D00F25D5E7583500202DE9F047A8
:10A9F00004460E460079204900EBC00001EB8005BB
:10AA000017463046FFF7C2FD30B1204600F036F859
:10AA100020B11120BDE8F0871020FBE76F61AE6028
:10AA20004FF49076002731462068FFF769FC4FF419
:10AA3000AC7841462068FFF763FC2068AA68696922
:10AA4000C0F84425C0F84815206801218160686875
:10AA500078B9B14649462068FFF74DFC06464146A5
:10AA60002068FFF748FC0643F4D000B10F27002010
:10AA700068613846CEE70000583500200079054966
:10AA800000EBC00001EB80004069002800D00120ED
:10AA900070470000583500202DE9F84F05460C4658
:10AAA0000888B5F8CA1288427ED195F8C602DFF848
:10AAB00024A100EB8001C1EB801005EB400660880B
:10AAC0004FF0000B00285DD13079E288A71D814648
:10AAD000D1B250FA82F2062A02D80844307111E04D
:10AAE000062030713C483D493288401AC108022096
:10AAF00000EB014080463A49FEF7D8FF404639490D
:10AB0000FEF7D0FF48460023D8461BE000EBC0010B
:10AB100006EB410203EB830107EB4101401CD1F836
:10AB200002C0C2F80AC0D1F806C0C2F80EC04989F6
:10AB30005182A2F81480A2F81680A2F81880A2F818
:10AB40001A805B1C31798142E0D895F8C61200EB7F
:10AB5000C00001EB8102C2EB811105EB410136F827
:10AB60001000098988420DD2307906280AD085F86C
:10AB7000C50221882846FDF7D9F901001AD085F8C9
:10AB8000C7820BE085F8C5B25E4622886946284632
:10AB9000FDF7CCFA01000FD085F8C762228828465D
:10ABA000FDF79EFB032100E004E08AF800102188F5
:10ABB000AAF80210BDE8F88F9DF800000028F9D02F
:10ABC000228801212846FDF743FB2188284600F012
:10ABD00063F9EFE7AC3100207CC802007CC80200BA
:10ABE00040C0020088C0020070B58D88027900EB79
:10ABF000C5042273C97BA41D012902D0022904D1F6
:10AC000001E0008800E0408820802188608881423F
:10AC100011D92846A5DF0126B0B1112816D0FFF7BB
:10AC20004FFB02460B480C49401AC00806EB004097
:10AC30000AA1FEF73BFFA179E079814208D92846B5
:10AC4000BDE87040FDF70CBA6671F4E72671F2E7D3
:10AC500070BD000084C802007CC8020073645F629B
:10AC60006C655F67617474635F65786368616E6764
:10AC7000655F6D74755F72657175657374282920E1
:10AC800072657475726E65642025732E0000000075
:10AC9000F8B505460C460888B5F8CA1288425DD159
:10ACA00095F8C602A61D00EB8001C1EB801005EBF4
:10ACB000400395F8C502618800EBC00003EB40003B
:10ACC0000A3039B329E000BF01EB410206EB420232
:10ACD0009788B7F5245F0CD06FF4245C17EB0C0752
:10ACE0000AD0012F02D0072F0BD108E052884281F1
:10ACF00007E05288828104E05288C28101E05288D4
:10AD0000028242892AB182891AB1C2890AB1028AB1
:10AD10001AB9491C32888A42D6D800268DF80060BC
:10AD200095F8C5021979401C884203D101208DF89D
:10AD3000000018E085F8C502228869462846FDF71C
:10AD4000F5F901000BD085F8C76222882846FDF787
:10AD5000C7FA0A480321017021884180F8BD9DF897
:10AD600000000028FAD0228801212846FDF770FA59
:10AD70002188284600F090F8F8BD0000AC31002092
:10AD80007CB506468D88C88806EBC504A41D172827
:10AD900000D217202188814200D808466080002018
:10ADA000207121882846B5DF60B1FFF789FA024695
:10ADB0000F481049401AC008012101EB00400EA1C4
:10ADC000FEF774FE6079002810D1306900280DD09C
:10ADD0001549D1E90201CDE90001ADF802506088C2
:10ADE000ADF8040032696946304690477CBD0000EA
:10ADF00084C802007CC8020073645F626C655F6790
:10AE0000617474735F65786368616E67655F6D74A4
:10AE1000755F7265706C7928292072657475726E21
:10AE200065642025732E0000ECBC020070B5054659
:10AE30000C4690F8C602228800EB8001C1EB80101E
:10AE400005EB4001B5F8CA02824222D1608848B1C0
:10AE500000212846FDF7FCF921882846BDE870400E
:10AE600000F01AB8A2680A60E068C1F806002188FC
:10AE70002846FDF75BF801000BD0002085F8C702DB
:10AE800022882846FDF72CFA024803210170218808
:10AE9000418070BDAC3100202DE9F041044690F8AE
:10AEA000C9020E46401C1949C0B284F8C902C968DB
:10AEB0000327174D4FF0000E884224D284F8C5E2D4
:10AEC00094F8C602401CC0B200EB8001C1EB8011B7
:10AED00004EB410284F8C602A5F1180101EB8000E1
:10AEE00001210068106082F804E030469BDF010019
:10AEF00007D084F8C7E232462046FDF7F1F92F70FB
:10AF00006E80BDE8F08184F8C7E2F8E7C82C002025
:10AF1000AC3100200449084490F93000082801DBD6
:10AF20000120704700207047C034002004490844C5
:10AF300090F93000082801D20120704700207047A6
:10AF4000C034002010B50C46017A052908D0407A9B
:10AF500038B1084808A102682046FEF787F900E0EA
:10AF60001AB106A12046FEF781F92046BDE810403F
:10AF7000FEF789B9942D0020257300000D0A00000A
:10AF800038B5C3880D46044633B114A0009015A20D
:10AF900016A12846FEF76AF9217A05291CD0607AA5
:10AFA00048B1A088FEF73EFC164951F8202016A1B2
:10AFB0002846FEF75BF9A0880021FEF713FE034642
:10AFC0001049207A143951F8202001B02846BDE8F4
:10AFD00030400EA1FEF74AB938BD00001B5B306D52
:10AFE000000000001B5B313B33316D0025734C6F5B
:10AFF00067732064726F707065642028256429254A
:10B00000730D0A00942D0020257300003C25733E2B
:10B010002025733A200000000349884201D10348EB
:10B02000704700207047000000200040F42C0020F2
:10B0300070B50C4B00210A4ADC680DE002EB81057B
:10B040008678AD78B54206D132F821500688B542EF
:10B0500001D1586870BD491CA142EFD3002070BDDA
:10B0600094310020C82C002070B5012670044FF0E8
:10B07000E0210025C1F88001084C4010C4F84803C5
:10B08000C4F8080366602F20FFF776F9A660044C29
:10B090002F20A560FFF770F9A57070BD001001406A
:10B0A000202D002070B5054688690C4600284FF415
:10B0B000847128460AD0FFF712F9D5F81805626A9C
:10B0C000E1688854606A401C606270BDFFF707F950
:10B0D000D5F8180570BD1FB501238DF80030CDE9F6
:10B0E0000121D0E90012684690471FBD1FB501231A
:10B0F0008DF800308DF808100192D0E900126846F2
:10B1000090471FBD10B5044600684FF49271FFF7D9
:10B11000E6F84FF484712068FFF7E1F82068012118
:10B12000016010BD7FB5014603781448144A801AA7
:10B13000C008032202EB0040042B18D0062B0ED0CF
:10B14000072B0BD14968CA788D794C790B798DE83A
:10B150003C008B784A780BA1FEF7B7FC7FBD4868AE
:10B160000028FBD004B0BDE87040FBF74BBE11A136
:10B17000FEF798FCBDE87F4000F050B8D4C802004C
:10B180007CC80200436F6E6E656374696E672074DD
:10B190006F207461726765742025303278253032F3
:10B1A00078253032782530327825303278253032A3
:10B1B000780000005363616E2074696D6564206FD0
:10B1C00075742E001FB5002000900190029003902E
:10B1D00001208DF804008DF80C000D4A69460D48D9
:10B1E000FDF75EFE08B1FBF70DFE0B4A032109488F
:10B1F000FDF713FE08B1FBF705FE00220421054808
:10B20000FDF733FE002801D0FBF7FCFD1FBD000059
:10B2100025B10200D830002020BC020010B508483B
:10B22000FDF748FF08B1FBF7EDFD0120FCF7A0FC9E
:10B23000002803D0BDE81040FBF7E4BD10BD0000BE
:10B24000D830002038B50021012548B101280CD0A4
:10B25000032809D1FFF75AF8BDE83840FDF79ABF37
:10B260004FF0E020C0F8805138BD8DF800106846DE
:10B27000FBF722FF064C207808B9FDF76FFFE06866
:10B28000401CE060A5709DF80000FBF739FF38BD59
:10B29000AC3400203EB5044609496846FEF7CCFFB1
:10B2A00008E000BFD0E900212046904730B1684651
:10B2B000FEF7D9FF02980028F4D13EBD11203EBD13
:10B2C00028BF02003EB5044608496846FEF7B4FFB1
:10B2D00007E000BFD0E90021204690476846FEF70E
:10B2E000C2FF02980028F5D13EBD000034BF020025
:10B2F0002DE9F0411400884618D000250E4F032692
:10B3000008EB050122460020FBF73EFA0544241A0B
:10B3100040B93878002809D008494FF47A40884766
:10B32000761E05D001203870002CE9D1BDE8F081EF
:10B3300000203870FAE700005C2D002001BF0200F9
:10B3400010B504460020FCF713FC08B1FBF75AFDCA
:10B3500024B9FCF779FB08B1FBF754FD012010BDBF
:10B3600070B5194D194C07E001682078884700280E
:10B3700029D01548FEF777FFA8680028F4D1FEF71A
:10B380003FFC00BFFEF774FA0028FBD120780328A9
:10B390000CD002280AD0FEF72BFF00B133DF0C4996
:10B3A00001200860BFF34F8F20BFFDE7BFF34F8F31
:10B3B00008480168084A01F4E06111430160BFF3E5
:10B3C0004F8F00BFFDE770BDD4360020502D002008
:10B3D000000500400CED00E00400FA05002805D14E
:10B3E0000349012048700020FCF7C2BD70470000EF
:10B3F000AC34002010B51620FBF79AFBA0B1114821
:10B4000090F800044009082811D20121814011F070
:10B41000EC0F0CD00C4882684FF480016AB10168CF
:10B4200041F48001016010BD42F2010001E042F2EE
:10B430000200BDE81040FBF7E5BC4FF0E020C0F88B
:10B44000001110BD16E000E0C83600202DE9F84FCD
:10B45000204D92468946064698460122694618467E
:10B46000AF68FCF7C3FC58B3009800210446801C69
:10B4700009E000BF00EA07035AF8212005EB830327
:10B48000401C491CDA604145F4D34FEA164AFCF7E8
:10B4900073FF4AEA0041601C384005EB80003C40E5
:10B4A00005EB8402C160D06866F3C50068F38910BB
:10B4B00069F39F2020F00300401C20F00400D060BE
:10B4C00095F8200402E000BFFEF7D2F90028FBD176
:10B4D000BDE8F88F783800202DE9F84F1D4C002585
:10B4E0006846D4E901A6FCF751FF002738B30023D2
:10B4F000009A61681CE0D1F800C00846944503D961
:10B50000ACEB02020A6015E0A2EB0C026344076098
:10B51000D0F80CC0C1698146BCF1000F08D006EB21
:10B52000030828F07F48C0E9018CC9F81C50054683
:10B530000029E0D128466160FDF712F903E02846B2
:10B54000FDF70EF910B15046FCF734FDE770BDE889
:10B55000F88F0000202D00200D4B10B5596831B137
:10B5600002680C68A24204D8A21A0A60C16158603D
:10B5700010BD0B4603E00B46C969121B21B10C68D4
:10B580009442F8D3A41A0C600260C161D86110BD66
:10B59000202D00202DE9F041144E77683D462C46C1
:10B5A00003E0844204D02546E469002CF9D11BE075
:10B5B000D4B1A5420BD1F869706040B90C490120A3
:10B5C00088600021B160F0702F20FEF7D5FE216861
:10B5D000E069E86110B10268114401607068874257
:10B5E00002D00120BDE8F0810020FBE7202D0020E3
:10B5F000001001407CB5064600240D468DF8004041
:10B600006846FBF759FD01A800F0CCFA70B105704F
:10B61000094946609DF8040048709DF80000FBF75A
:10B620006FFD1420FBF754F820467CBD04249DF8E0
:10B630000000FBF765FDF7E79C3500202DE9F041A0
:10B64000194D6C68002C2CD0184800270068A96898
:10B65000B846401A20F07F462068B0420CD82146F8
:10B66000361A0744E469087C20B181F810808869A3
:10B6700049698847002CEFD129786878814206D142
:10B68000401CC0B26870022801D185F801800648CC
:10B6900069780C3040F82170BDE8F0411420FBF7C8
:10B6A00017B8BDE8F0810000202D002004150140EE
:10B6B00070B50C4605464FF48E71FEF710FE216AF8
:10B6C000A068415C206A401C2062C5F81C1570BD52
:10B6D0001FB500228DF8002002918168019142611E
:10B6E000D0E90012684690471FBD000070B502788F
:10B6F000044662B11B481C4B0121C01AC00801EB73
:10B700000040012A25D0022A22D118A122E0254C8E
:10B71000234D60882844FBF739FC6088401C80B2C8
:10B720002918608011F8011C0A2902D0218888425A
:10B730000ED31B49628801F53D70FCF759F80828C3
:10B7400004D01328F5D008B1FBF75CFB0020608023
:10B7500070BD15A1FEF7A6F96068BDE87040FBF763
:10B7600051BB0000D4C802007CC80200436F6D6D5D
:10B77000756E69636174696F6E206572726F722095
:10B780006F63637572726564207768696C652068A1
:10B79000616E646C696E6720554152542E00000042
:10B7A000C02D0020E02900204572726F72206F6367
:10B7B00063757272656420696E204649464F206D3C
:10B7C0006F64756C652075736564206279205541DE
:10B7D00052542E007CB50178244D81B301290BD041
:10B7E00002292BD18DF80010C068691C019001223C
:10B7F000C81DFDF71BFD2EE0406801781C48FBF7D3
:10B8000027FB1B4C012618B18DF80060019006E063
:10B81000A068E168814205D000208DF800006968C9
:10B8200068468847A068E168081AA188884207D856
:10B830000E490122491CC81DFDF7F8FC7CBD01E042
:10B84000AE70FBE70A4809491030FBF7E6FA30B161
:10B8500003208DF80000696868468847EEE70349D1
:10B86000012201F10800FDF7F1FCE7E7342D00208B
:10B87000A83600201FB50A4601788DF800104168EF
:10B880000191017A8DF80810C0680390044850F8BF
:10B890002210083850F82220684690471FBD00004B
:10B8A000E42C00202DE9FF470C4605464FF40071BB
:10B8B000FEF71BFD01274FF40178002618B34FF463
:10B8C000927949462846FEF705FDE0B149462846EB
:10B8D000FEF705FDC5F8088394F8290000B96F60EC
:10B8E00002208DF80000D5F88004C5F8800403908C
:10B8F000A0690290E0680190A661E661D4E90012B7
:10B900006846904728E004212846FEF7EEFC18B36D
:10B910004FF484712846FEF7DDFCE8B12146284645
:10B92000FFF7C0FB616AA069884215D1E06938B1B0
:10B93000E268616AA0612069E6616662E06008E031
:10B9400094F8290000B96F60C5F80883A661E26821
:10B95000616A2046FFF7BFFB4FF48E7841462846C8
:10B96000FEF7B8FC78B1206A6169884202D294F887
:10B97000280020B341462846FEF7B1FC616911B1A9
:10B980002046FFF7A5FE4FF4A27841462846FEF771
:10B99000A1FC002818D041462846FEF7A0FC94F8E8
:10B9A000290000B12F60A06900280DD0A661E268CF
:10B9B000616A04B02046BDE8F047FFF78CBB214622
:10B9C0002846FFF775FEDEE7BDE8FF871FB50A468C
:10B9D00001788DF8001041680191017A8DF8081006
:10B9E000C0680390044850F82210083850F822200C
:10B9F000684690471FBD0000E42C00202DE9FF4160
:10BA00000C464FF4927705463946FEF774FC002643
:10BA1000C0B139462846FEF773FC02208DF80000BD
:10BA2000D5F88004C5F880040390D5F83C058DF85E
:10BA30000800E0680190A661E661D4E9001268465A
:10BA4000904723E04FF4887739462846FEF753FCA9
:10BA5000E0B139462846FEF753FCD5F83C15A069FD
:10BA6000884213D1E06960B1E268D5F8000220F0A5
:10BA70002000C5F80002E069A0612069E661E0608D
:10BA800001E0A661E2682046FFF730FB4FF4A277A1
:10BA900039462846FEF72FFC60B139462846FEF7A6
:10BAA0002FFCA06930B1A661D5F83C152046E268AC
:10BAB000FFF71CFB4FF4907739462846FEF71BFC36
:10BAC000002813D039462846FEF71AFC6069002882
:10BAD0000CD0D5F84C058DF800608DF80800A068F2
